{"blockchain/contracts/CTDQuizBurner.sol":{"CTDQuizBurner":{"abi":[{"inputs":[{"internalType":"address","name":"_ctdToken","type":"address"},{"internalType":"address","name":"_projectTreasury","type":"address"}],"stateMutability":"nonpayable","type":"constructor"},{"inputs":[],"name":"EnforcedPause","type":"error"},{"inputs":[],"name":"ExpectedPause","type":"error"},{"inputs":[{"internalType":"address","name":"owner","type":"address"}],"name":"OwnableInvalidOwner","type":"error"},{"inputs":[{"internalType":"address","name":"account","type":"address"}],"name":"OwnableUnauthorizedAccount","type":"error"},{"inputs":[],"name":"ReentrancyGuardReentrantCall","type":"error"},{"anonymous":false,"inputs":[{"indexed":true,"internalType":"address","name":"token","type":"address"},{"indexed":false,"internalType":"uint256","name":"amount","type":"uint256"},{"indexed":true,"internalType":"address","name":"to","type":"address"}],"name":"EmergencyWithdraw","type":"event"},{"anonymous":false,"inputs":[{"indexed":true,"internalType":"address","name":"previousOwner","type":"address"},{"indexed":true,"internalType":"address","name":"newOwner","type":"address"}],"name":"OwnershipTransferred","type":"event"},{"anonymous":false,"inputs":[{"indexed":false,"internalType":"address","name":"account","type":"address"}],"name":"Paused","type":"event"},{"anonymous":false,"inputs":[{"indexed":true,"internalType":"address","name":"user","type":"address"},{"indexed":false,"internalType":"uint256","name":"amount","type":"uint256"},{"indexed":false,"internalType":"string","name":"quizId","type":"string"},{"indexed":false,"internalType":"uint256","name":"timestamp","type":"uint256"}],"name":"QuizCompleted","type":"event"},{"anonymous":false,"inputs":[{"indexed":false,"internalType":"uint256","name":"previousAllowance","type":"uint256"},{"indexed":false,"internalType":"uint256","name":"newAllowance","type":"uint256"}],"name":"TreasuryAllowanceUpdated","type":"event"},{"anonymous":false,"inputs":[{"indexed":false,"internalType":"address","name":"account","type":"address"}],"name":"Unpaused","type":"event"},{"stateMutability":"payable","type":"fallback"},{"inputs":[],"name":"BURN_AMOUNT","outputs":[{"internalType":"uint256","name":"","type":"uint256"}],"stateMutability":"view","type":"function"},{"inputs":[{"internalType":"address","name":"user","type":"address"},{"internalType":"string","name":"quizId","type":"string"}],"name":"_executeBurn","outputs":[],"stateMutability":"nonpayable","type":"function"},{"inputs":[{"internalType":"string","name":"quizId","type":"string"}],"name":"burnQuizTokens","outputs":[],"stateMutability":"nonpayable","type":"function"},{"inputs":[{"internalType":"address","name":"","type":"address"}],"name":"burnRecords","outputs":[{"internalType":"address","name":"user","type":"address"},{"internalType":"uint256","name":"amount","type":"uint256"},{"internalType":"uint256","name":"timestamp","type":"uint256"},{"internalType":"string","name":"quizId","type":"string"},{"internalType":"bool","name":"completed","type":"bool"}],"stateMutability":"view","type":"function"},{"inputs":[{"internalType":"uint256","name":"","type":"uint256"}],"name":"burnersList","outputs":[{"internalType":"address","name":"","type":"address"}],"stateMutability":"view","type":"function"},{"inputs":[{"internalType":"address","name":"user","type":"address"}],"name":"canBurnTokens","outputs":[{"internalType":"bool","name":"eligible","type":"bool"},{"internalType":"string","name":"reason","type":"string"}],"stateMutability":"view","type":"function"},{"inputs":[],"name":"ctdToken","outputs":[{"internalType":"contract IERC20","name":"","type":"address"}],"stateMutability":"view","type":"function"},{"inputs":[{"internalType":"address","name":"token","type":"address"},{"internalType":"uint256","name":"amount","type":"uint256"},{"internalType":"address","name":"to","type":"address"}],"name":"emergencyWithdraw","outputs":[],"stateMutability":"nonpayable","type":"function"},{"inputs":[{"internalType":"uint256","name":"offset","type":"uint256"},{"internalType":"uint256","name":"limit","type":"uint256"}],"name":"getBurnersList","outputs":[{"internalType":"address[]","name":"users","type":"address[]"},{"internalType":"uint256","name":"total","type":"uint256"}],"stateMutability":"view","type":"function"},{"inputs":[],"name":"getStats","outputs":[{"internalType":"uint256","name":"_totalBurned","type":"uint256"},{"internalType":"uint256","name":"_totalUsers","type":"uint256"},{"internalType":"uint256","name":"_treasuryBalance","type":"uint256"},{"internalType":"uint256","name":"_allowance","type":"uint256"}],"stateMutability":"view","type":"function"},{"inputs":[{"internalType":"address","name":"user","type":"address"}],"name":"getUserInfo","outputs":[{"internalType":"bool","name":"completed","type":"bool"},{"internalType":"uint256","name":"burnTimestamp","type":"uint256"},{"internalType":"uint256","name":"burnAmount","type":"uint256"},{"internalType":"string","name":"quizId","type":"string"}],"stateMutability":"view","type":"function"},{"inputs":[{"internalType":"address","name":"","type":"address"}],"name":"hasCompletedQuiz","outputs":[{"internalType":"bool","name":"","type":"bool"}],"stateMutability":"view","type":"function"},{"inputs":[{"internalType":"address","name":"","type":"address"}],"name":"lastBurnTimestamp","outputs":[{"internalType":"uint256","name":"","type":"uint256"}],"stateMutability":"view","type":"function"},{"inputs":[],"name":"owner","outputs":[{"internalType":"address","name":"","type":"address"}],"stateMutability":"view","type":"function"},{"inputs":[],"name":"paused","outputs":[{"internalType":"bool","name":"","type":"bool"}],"stateMutability":"view","type":"function"},{"inputs":[],"name":"projectTreasury","outputs":[{"internalType":"address","name":"","type":"address"}],"stateMutability":"view","type":"function"},{"inputs":[],"name":"renounceOwnership","outputs":[],"stateMutability":"nonpayable","type":"function"},{"inputs":[],"name":"togglePause","outputs":[],"stateMutability":"nonpayable","type":"function"},{"inputs":[],"name":"totalBurned","outputs":[{"internalType":"uint256","name":"","type":"uint256"}],"stateMutability":"view","type":"function"},{"inputs":[],"name":"totalUsers","outputs":[{"internalType":"uint256","name":"","type":"uint256"}],"stateMutability":"view","type":"function"},{"inputs":[{"internalType":"address","name":"newOwner","type":"address"}],"name":"transferOwnership","outputs":[],"stateMutability":"nonpayable","type":"function"},{"inputs":[{"internalType":"string","name":"","type":"string"}],"name":"usedQuizIds","outputs":[{"internalType":"bool","name":"","type":"bool"}],"stateMutability":"view","type":"function"},{"stateMutability":"payable","type":"receive"}],"evm":{"bytecode":{"linkReferences":{},"object":"60c034620001c05762001bdc90601f38839003908101601f19168201906001600160401b03821183831017620001c55780839160409586948552833981010312620001c0576200005d60206200005583620001db565b9201620001db565b903315620001a85760008054336001600160a01b03198216811783558551936001600160a01b039384939192918416907f8be0079c531659141344cd1fd0a4f28419497f9722a3daafe3b4186f6b6457e09080a36001805516918215620001665750821615620001175760805260a052516119eb9081620001f182396080518181816102220152818161099d015281816112e10152611674015260a0518181816101f3015281816103fc01528181610966015261163c0152f35b825162461bcd60e51b815260206004820152602260248201527f54726561737572792061646472657373206e616f20706f646520736572207a65604482015261726f60f01b6064820152608490fd5b62461bcd60e51b815260206004820152601f60248201527f546f6b656e2061646472657373206e616f20706f646520736572207a65726f006044820152606490fd5b8251631e4fbdf760e01b815260006004820152602490fd5b600080fd5b634e487b7160e01b600052604160045260246000fd5b51906001600160a01b0382168203620001c05756fe608080604052600436101561001a575b50361561001857005b005b600090813560e01c9081630b833b6d146112cd5750806320ad6ae3146112a95780632600bf1414611270578063551512de146110cb5780635c975abb146110a857806362c7f217146110385780636386c1c714610f7f57806369be643c14610914578063715018a6146108ba5780638275ebb01461087557806384a850b1146108365780638da5cb5b1461080f578063a1641b49146107ac578063a80d76b714610725578063ad3a078a1461048d578063ba6e099514610449578063bff1f9e11461042b578063c3d0c459146103e6578063c4ae31681461032e578063c59d4847146101c5578063d89135cd146101a75763f2fde38b0361000f57346101a45760203660031901126101a45761012e611310565b610136611562565b6001600160a01b0390811690811561018b57600054826bffffffffffffffffffffffff60a01b821617600055167f8be0079c531659141344cd1fd0a4f28419497f9722a3daafe3b4186f6b6457e0600080a380f35b604051631e4fbdf760e01b815260048101849052602490fd5b80fd5b50346101a457806003193601126101a4576020600854604051908152f35b50346101a457806003193601126101a4576008546009546040516370a0823160e01b81526001600160a01b037f000000000000000000000000000000000000000000000000000000000000000081811660048401529492906020907f0000000000000000000000000000000000000000000000000000000000000000168184602481845afa9384156103235785946102f2575b50604051636eb1769f60e11b81526001600160a01b039097166004880152306024880152819087908180604481015b03915afa9384156102e657936102b1575b6080955060405194855284015260408301526060820152f35b80935085813d83116102df575b6102c881836113bc565b810103126102da576080945192610298565b600080fd5b503d6102be565b604051903d90823e3d90fd5b9093508181813d831161031c575b61030a81836113bc565b810103126102da575192610287610258565b503d610300565b6040513d87823e3d90fd5b50346101a457806003193601126101a457610347611562565b60025460ff8116156103a6575060025460ff8116156103945760ff19166002557f5db9ee0a495bf2e6ff9c91a7834c1ba4fdd244a5e8aa4e537bd38aeae4b073aa6020604051338152a180f35b604051638dfc202b60e01b8152600490fd5b6001906103b161158e565b60ff1916176002557f62e78cea01bee320cd4e420270b5ea74000d11b0c9f74754ebdbfc544b05a2586020604051338152a180f35b50346101a457806003193601126101a4576040517f00000000000000000000000000000000000000000000000000000000000000006001600160a01b03168152602090f35b50346101a457806003193601126101a4576020600954604051908152f35b50346101a45760203660031901126101a45760043590600a548210156101a457602061047483611515565b905460405160039290921b1c6001600160a01b03168152f35b50346101a4576020806003193601126107215767ffffffffffffffff60043581811161071d576104c19036906004016113de565b9060026001541461070b5760026001556104d961158e565b3384526003835260ff6040852054166106c8573384526007835260ff60408520541661068d578151156106555760ff6040518481855161051c8183858a01611326565b8101600681520301902054166106195733845260078352604084209160ff199260018482541617905584303b156101a4576105799160405180938192631a6f990f60e21b8352336004840152604060248401526044830190611349565b038183305af191826105f1575b50506105d85750606491339052600781526040519062461bcd60e51b82526004820152601b60248201527f46616c6861206e6120657865637563616f20646120717565696d6100000000006044820152fd5b9060079033845252604082209081541690556001805580f35b819592951161060557604052923880610586565b634e487b7160e01b82526041600452602482fd5b60405162461bcd60e51b81526004810184905260146024820152735175697a204944206a61207574696c697a61646f60601b6044820152606490fd5b60405162461bcd60e51b815260048101849052601060248201526f5175697a20494420696e76616c69646f60801b6044820152606490fd5b60405162461bcd60e51b8152600481018490526013602482015272517565696d6120656d20616e64616d656e746f60681b6044820152606490fd5b6064836040519062461bcd60e51b825280600483015260248201527f5175697a206a6120636f6d706c657461646f20616e746572696f726d656e74656044820152fd5b604051633ee5aeb560e01b8152600490fd5b8380fd5b5080fd5b50346101a45760203660031901126101a4576001600160a01b03906040908261074c611310565b168152600560205220908154166001820154916107a060028201549160ff60046107786003840161146f565b920154169260405195869586526020860152604085015260a0606085015260a0840190611349565b90151560808301520390f35b50346101a45760203660031901126101a4576004359067ffffffffffffffff82116101a457602060ff6107f9826107e636600488016113de565b8160405193828580945193849201611326565b8101600681520301902054166040519015158152f35b50346101a457806003193601126101a457546040516001600160a01b039091168152602090f35b50346101a45760203660031901126101a45760209060ff906040906001600160a01b03610861611310565b168152600384522054166040519015158152f35b50346101a45760203660031901126101a457610897610892611310565b6115e9565b906108b660405192839215158352604060208401526040830190611349565b0390f35b50346101a457806003193601126101a4576108d3611562565b80546001600160a01b03198116825581906001600160a01b03167f8be0079c531659141344cd1fd0a4f28419497f9722a3daafe3b4186f6b6457e08280a380f35b50346101a45760403660031901126101a45761092e611310565b67ffffffffffffffff60243581811161071d5761094f9036906004016113de565b90303303610f4857604051636eb1769f60e11b81527f00000000000000000000000000000000000000000000000000000000000000006001600160a01b0381811660048401523060248401527f00000000000000000000000000000000000000000000000000000000000000001691602081604481865afa8015610eb2578790610f0d575b683635c9adc5dea00000915010610ebd576040516370a0823160e01b81526001600160a01b039091166004820181905290602081602481865afa8015610eb2578790610e73575b683635c9adc5dea00000915010610e2e578591606460209260405194859384926323b872dd60e01b84526004840152816024840152683635c9adc5dea0000060448401525af1908115610323578591610dff575b5015610dbb5760018060a01b0383168452600360205260408420600160ff1982541617905560046020524260408520556040516020818451610ab48183858901611326565b81016006815203019020600160ff1982541617905560405190610ad68261136e565b6001600160a01b03848116808452683635c9adc5dea00000602080860191825242604080880191825260608801898152600160808a01819052958c5260059093528a20875181546001600160a01b031916961695909517855591519284019290925551600283015551805191928211610da757610b566003840154611435565b601f8111610d63575b50602090601f8311600114610cf1579180608094926004948a92610ce6575b50508160011b916000199060031b1c19161760038201555b01910151151560ff80198354169116179055600854683635c9adc5dea000008101809111610cd2576008556001600160a01b0382168352600560205260408320600201544214610c41575b610c297fc9a78544de36c33d402c60ffd4e61f4fb727c7ad9f598c1f4ac98eea56048d7a91604051918291683635c9adc5dea000008352606060208401526060830190611349565b4260408301526001600160a01b03909416930390a280f35b610c4c6009546115c4565b600955600a5468010000000000000000811015610cbe577fc9a78544de36c33d402c60ffd4e61f4fb727c7ad9f598c1f4ac98eea56048d7a91610c98826001610c299401600a55611515565b81546001600160a01b0387811660039390931b92831b921b19161790559150610be19050565b634e487b7160e01b84526041600452602484fd5b634e487b7160e01b84526011600452602484fd5b015190503880610b7e565b906003840188526020882091885b601f1985168110610d4b5750926080949260019260049583601f19811610610d32575b505050811b016003820155610b96565b015160001960f88460031b161c19169055388080610d22565b91926020600181928685015181550194019201610cff565b60038401885260208820601f840160051c810160208510610da0575b601f830160051c82018110610d95575050610b5f565b898155600101610d7f565b5080610d7f565b634e487b7160e01b87526041600452602487fd5b606460405162461bcd60e51b815260206004820152602060248201527f46616c6861206e61207472616e73666572656e6369612070617261206275726e6044820152fd5b610e21915060203d602011610e27575b610e1981836113bc565b8101906115ac565b38610a6f565b503d610e0f565b60405162461bcd60e51b815260206004820152601e60248201527f53616c646f20696e737566696369656e7465206e6f20747265617375727900006044820152606490fd5b506020813d602011610eaa575b81610e8d602093836113bc565b81010312610ea657683635c9adc5dea000009051610a1b565b8680fd5b3d9150610e80565b6040513d89823e3d90fd5b60405162461bcd60e51b815260206004820152602260248201527f416c6c6f77616e636520696e737566696369656e746520646f20747265617375604482015261727960f01b6064820152608490fd5b506020813d602011610f40575b81610f27602093836113bc565b81010312610ea657683635c9adc5dea0000090516109d4565b3d9150610f1a565b60405162461bcd60e51b815260206004820152600f60248201526e41636573736f20726573747269746f60881b6044820152606490fd5b50346101a45760203660031901126101a4576001600160a01b036108b681610fa5611310565b1692838152600560205260ff604080832092815195610fc38761136e565b8454168652600184015496602087019788526002850154968381019788526080856004610ff260038a0161146f565b9860608501998a52015416151591015281526003602052205416925193519051906040519485941515855260208501526040840152608060608401526080830190611349565b50346101a45760403660031901126101a4576110586024356004356118bd565b909160405191604083019160408452845180935260608401926020809601915b81811061108b5750505082938301520390f35b82516001600160a01b031685529386019391860191600101611078565b50346101a457806003193601126101a457602060ff600254166040519015158152f35b50346101a45760603660031901126101a4576110e5611310565b6044356001600160a01b03818116926024359284900361126c57611107611562565b8315611227571690816111af578047106111755783818482821561116c575b839283928392f1156111615760207faaeda929aa102e867049528ec7cd2499e3a2f8846e736ae7935f234dfbf500d9915b604051908152a380f35b6040513d85823e3d90fd5b506108fc611126565b60405162461bcd60e51b815260206004820152601260248201527153616c646f20696e737566696369656e746560701b6044820152606490fd5b6040519063a9059cbb60e01b825283600483015280602483015260208260448188875af1908115610323577faaeda929aa102e867049528ec7cd2499e3a2f8846e736ae7935f234dfbf500d99260209261120a575b50611157565b61122090833d8111610e2757610e1981836113bc565b5038611204565b60405162461bcd60e51b815260206004820152601c60248201527f456e64657265636f2064652064657374696e6f20696e76616c69646f000000006044820152606490fd5b8480fd5b50346101a45760203660031901126101a4576020906040906001600160a01b03611298611310565b168152600483522054604051908152f35b50346101a457806003193601126101a4576020604051683635c9adc5dea000008152f35b9050346107215781600319360112610721577f00000000000000000000000000000000000000000000000000000000000000006001600160a01b03168152602090f35b600435906001600160a01b03821682036102da57565b60005b8381106113395750506000910152565b8181015183820152602001611329565b9060209161136281518092818552858086019101611326565b601f01601f1916010190565b60a0810190811067ffffffffffffffff82111761138a57604052565b634e487b7160e01b600052604160045260246000fd5b6040810190811067ffffffffffffffff82111761138a57604052565b90601f8019910116810190811067ffffffffffffffff82111761138a57604052565b81601f820112156102da5780359067ffffffffffffffff821161138a5760405192611413601f8401601f1916602001856113bc565b828452602083830101116102da57816000926020809301838601378301015290565b90600182811c92168015611465575b602083101461144f57565b634e487b7160e01b600052602260045260246000fd5b91607f1691611444565b906040519182600082549261148384611435565b9081845260019485811690816000146114f257506001146114af575b50506114ad925003836113bc565b565b9093915060005260209081600020936000915b8183106114da5750506114ad9350820101388061149f565b855488840185015294850194879450918301916114c2565b9150506114ad94506020925060ff191682840152151560051b820101388061149f565b600a5481101561154c57600a6000527fc65a7bb8d6351c1cf70c95a316cc6a92839c986682d98bc35f958f4883f9d2a80190600090565b634e487b7160e01b600052603260045260246000fd5b6000546001600160a01b0316330361157657565b60405163118cdaa760e01b8152336004820152602490fd5b60ff6002541661159a57565b60405163d93c066560e01b8152600490fd5b908160209103126102da575180151581036102da5790565b60001981146115d35760010190565b634e487b7160e01b600052601160045260246000fd5b9060ff60025416611868576001600160a01b03918216600081815260036020908152604080832054909591939060ff166118395782526007835260ff858320541661180a578451636eb1769f60e11b81527f00000000000000000000000000000000000000000000000000000000000000006001600160a01b038116600483015230602483015290917f00000000000000000000000000000000000000000000000000000000000000008116918584604481865afa938415611800579086929186956117cd575b50683635c9adc5dea000008095106117975788516370a0823160e01b81529116600482015291829060249082905afa90811561178d57839161175c575b5010611724575073456c65676976656c207061726120717565696d6160601b600193519161171a836113a0565b6014835282015290565b7f53616c646f20696e737566696369656e7465206e6f207472656173757279000090935191611752836113a0565b601e835282015290565b90508381813d8311611786575b61177381836113bc565b810103126117825751386116ed565b8280fd5b503d611769565b86513d85823e3d90fd5b505050505075416c6c6f77616e636520696e737566696369656e746560501b909351916117c3836113a0565b6016835282015290565b838193949296503d83116117f9575b6117e681836113bc565b8101031261126c579085915193386116b0565b503d6117dc565b88513d87823e3d90fd5b5072517565696d6120656d20616e64616d656e746f60681b9093519161182f836113a0565b6013835282015290565b5050715175697a206a6120636f6d706c657461646f60701b9093519161185e836113a0565b6012835282015290565b60405160009250611878816113a0565b601081526f436f6e747261746f207061757361646f60801b602082015290565b67ffffffffffffffff811161138a5760051b60200190565b919082039182116115d357565b600a54929183821015611989578101908181116115d357838211611981575b6118e681836118b0565b916118f083611898565b926118fe60405194856113bc565b80845261190d601f1991611898565b016020903682860137825b82811061192757505050509190565b61193081611515565b91905461193d86836118b0565b90875182101561196c5761196793859160018060a01b039160031b1c169160051b880101526115c4565b611918565b60246000634e487b7160e01b81526032600452fd5b8391506118dc565b50506040516020810181811067ffffffffffffffff82111761138a57604052600081526000368137919056fea264697066735822122016cc826106c6e3b3c3b0e321129a117b0d11fd597b9d35b6d659c1b701765fe764736f6c63430008140033","opcodes":"PUSH1 0xC0 CALLVALUE PUSH3 0x1C0 JUMPI PUSH3 0x1BDC SWAP1 PUSH1 0x1F CODESIZE DUP4 SWAP1 SUB SWAP1 DUP2 ADD PUSH1 0x1F NOT AND DUP3 ADD SWAP1 PUSH1 0x1 PUSH1 0x1 PUSH1 0x40 SHL SUB DUP3 GT DUP4 DUP4 LT OR PUSH3 0x1C5 JUMPI DUP1 DUP4 SWAP2 PUSH1 0x40 SWAP6 DUP7 SWAP5 DUP6 MSTORE DUP4 CODECOPY DUP2 ADD SUB SLT PUSH3 0x1C0 JUMPI PUSH3 0x5D PUSH1 0x20 PUSH3 0x55 DUP4 PUSH3 0x1DB JUMP JUMPDEST SWAP3 ADD PUSH3 0x1DB JUMP JUMPDEST SWAP1 CALLER ISZERO PUSH3 0x1A8 JUMPI PUSH1 0x0 DUP1 SLOAD CALLER PUSH1 0x1 PUSH1 0x1 PUSH1 0xA0 SHL SUB NOT DUP3 AND DUP2 OR DUP4 SSTORE DUP6 MLOAD SWAP4 PUSH1 0x1 PUSH1 0x1 PUSH1 0xA0 SHL SUB SWAP4 DUP5 SWAP4 SWAP2 SWAP3 SWAP2 DUP5 AND SWAP1 PUSH32 0x8BE0079C531659141344CD1FD0A4F28419497F9722A3DAAFE3B4186F6B6457E0 SWAP1 DUP1 LOG3 PUSH1 0x1 DUP1 SSTORE AND SWAP2 DUP3 ISZERO PUSH3 0x166 JUMPI POP DUP3 AND ISZERO PUSH3 0x117 JUMPI PUSH1 0x80 MSTORE PUSH1 0xA0 MSTORE MLOAD PUSH2 0x19EB SWAP1 DUP2 PUSH3 0x1F1 DUP3 CODECOPY PUSH1 0x80 MLOAD DUP2 DUP2 DUP2 PUSH2 0x222 ADD MSTORE DUP2 DUP2 PUSH2 0x99D ADD MSTORE DUP2 DUP2 PUSH2 0x12E1 ADD MSTORE PUSH2 0x1674 ADD MSTORE PUSH1 0xA0 MLOAD DUP2 DUP2 DUP2 PUSH2 0x1F3 ADD MSTORE DUP2 DUP2 PUSH2 0x3FC ADD MSTORE DUP2 DUP2 PUSH2 0x966 ADD MSTORE PUSH2 0x163C ADD MSTORE RETURN JUMPDEST DUP3 MLOAD PUSH3 0x461BCD PUSH1 0xE5 SHL DUP2 MSTORE PUSH1 0x20 PUSH1 0x4 DUP3 ADD MSTORE PUSH1 0x22 PUSH1 0x24 DUP3 ADD MSTORE PUSH32 0x54726561737572792061646472657373206E616F20706F646520736572207A65 PUSH1 0x44 DUP3 ADD MSTORE PUSH2 0x726F PUSH1 0xF0 SHL PUSH1 0x64 DUP3 ADD MSTORE PUSH1 0x84 SWAP1 REVERT JUMPDEST PUSH3 0x461BCD PUSH1 0xE5 SHL DUP2 MSTORE PUSH1 0x20 PUSH1 0x4 DUP3 ADD MSTORE PUSH1 0x1F PUSH1 0x24 DUP3 ADD MSTORE PUSH32 0x546F6B656E2061646472657373206E616F20706F646520736572207A65726F00 PUSH1 0x44 DUP3 ADD MSTORE PUSH1 0x64 SWAP1 REVERT JUMPDEST DUP3 MLOAD PUSH4 0x1E4FBDF7 PUSH1 0xE0 SHL DUP2 MSTORE PUSH1 0x0 PUSH1 0x4 DUP3 ADD MSTORE PUSH1 0x24 SWAP1 REVERT JUMPDEST PUSH1 0x0 DUP1 REVERT JUMPDEST PUSH4 0x4E487B71 PUSH1 0xE0 SHL PUSH1 0x0 MSTORE PUSH1 0x41 PUSH1 0x4 MSTORE PUSH1 0x24 PUSH1 0x0 REVERT JUMPDEST MLOAD SWAP1 PUSH1 0x1 PUSH1 0x1 PUSH1 0xA0 SHL SUB DUP3 AND DUP3 SUB PUSH3 0x1C0 JUMPI JUMP INVALID PUSH1 0x80 DUP1 PUSH1 0x40 MSTORE PUSH1 0x4 CALLDATASIZE LT ISZERO PUSH2 0x1A JUMPI JUMPDEST POP CALLDATASIZE ISZERO PUSH2 0x18 JUMPI STOP JUMPDEST STOP JUMPDEST PUSH1 0x0 SWAP1 DUP2 CALLDATALOAD PUSH1 0xE0 SHR SWAP1 DUP2 PUSH4 0xB833B6D EQ PUSH2 0x12CD JUMPI POP DUP1 PUSH4 0x20AD6AE3 EQ PUSH2 0x12A9 JUMPI DUP1 PUSH4 0x2600BF14 EQ PUSH2 0x1270 JUMPI DUP1 PUSH4 0x551512DE EQ PUSH2 0x10CB JUMPI DUP1 PUSH4 0x5C975ABB EQ PUSH2 0x10A8 JUMPI DUP1 PUSH4 0x62C7F217 EQ PUSH2 0x1038 JUMPI DUP1 PUSH4 0x6386C1C7 EQ PUSH2 0xF7F JUMPI DUP1 PUSH4 0x69BE643C EQ PUSH2 0x914 JUMPI DUP1 PUSH4 0x715018A6 EQ PUSH2 0x8BA JUMPI DUP1 PUSH4 0x8275EBB0 EQ PUSH2 0x875 JUMPI DUP1 PUSH4 0x84A850B1 EQ PUSH2 0x836 JUMPI DUP1 PUSH4 0x8DA5CB5B EQ PUSH2 0x80F JUMPI DUP1 PUSH4 0xA1641B49 EQ PUSH2 0x7AC JUMPI DUP1 PUSH4 0xA80D76B7 EQ PUSH2 0x725 JUMPI DUP1 PUSH4 0xAD3A078A EQ PUSH2 0x48D JUMPI DUP1 PUSH4 0xBA6E0995 EQ PUSH2 0x449 JUMPI DUP1 PUSH4 0xBFF1F9E1 EQ PUSH2 0x42B JUMPI DUP1 PUSH4 0xC3D0C459 EQ PUSH2 0x3E6 JUMPI DUP1 PUSH4 0xC4AE3168 EQ PUSH2 0x32E JUMPI DUP1 PUSH4 0xC59D4847 EQ PUSH2 0x1C5 JUMPI DUP1 PUSH4 0xD89135CD EQ PUSH2 0x1A7 JUMPI PUSH4 0xF2FDE38B SUB PUSH2 0xF JUMPI CALLVALUE PUSH2 0x1A4 JUMPI PUSH1 0x20 CALLDATASIZE PUSH1 0x3 NOT ADD SLT PUSH2 0x1A4 JUMPI PUSH2 0x12E PUSH2 0x1310 JUMP JUMPDEST PUSH2 0x136 PUSH2 0x1562 JUMP JUMPDEST PUSH1 0x1 PUSH1 0x1 PUSH1 0xA0 SHL SUB SWAP1 DUP2 AND SWAP1 DUP2 ISZERO PUSH2 0x18B JUMPI PUSH1 0x0 SLOAD DUP3 PUSH12 0xFFFFFFFFFFFFFFFFFFFFFFFF PUSH1 0xA0 SHL DUP3 AND OR PUSH1 0x0 SSTORE AND PUSH32 0x8BE0079C531659141344CD1FD0A4F28419497F9722A3DAAFE3B4186F6B6457E0 PUSH1 0x0 DUP1 LOG3 DUP1 RETURN JUMPDEST PUSH1 0x40 MLOAD PUSH4 0x1E4FBDF7 PUSH1 0xE0 SHL DUP2 MSTORE PUSH1 0x4 DUP2 ADD DUP5 SWAP1 MSTORE PUSH1 0x24 SWAP1 REVERT JUMPDEST DUP1 REVERT JUMPDEST POP CALLVALUE PUSH2 0x1A4 JUMPI DUP1 PUSH1 0x3 NOT CALLDATASIZE ADD SLT PUSH2 0x1A4 JUMPI PUSH1 0x20 PUSH1 0x8 SLOAD PUSH1 0x40 MLOAD SWAP1 DUP2 MSTORE RETURN JUMPDEST POP CALLVALUE PUSH2 0x1A4 JUMPI DUP1 PUSH1 0x3 NOT CALLDATASIZE ADD SLT PUSH2 0x1A4 JUMPI PUSH1 0x8 SLOAD PUSH1 0x9 SLOAD PUSH1 0x40 MLOAD PUSH4 0x70A08231 PUSH1 0xE0 SHL DUP2 MSTORE PUSH1 0x1 PUSH1 0x1 PUSH1 0xA0 SHL SUB PUSH32 0x0 DUP2 DUP2 AND PUSH1 0x4 DUP5 ADD MSTORE SWAP5 SWAP3 SWAP1 PUSH1 0x20 SWAP1 PUSH32 0x0 AND DUP2 DUP5 PUSH1 0x24 DUP2 DUP5 GAS STATICCALL SWAP4 DUP5 ISZERO PUSH2 0x323 JUMPI DUP6 SWAP5 PUSH2 0x2F2 JUMPI JUMPDEST POP PUSH1 0x40 MLOAD PUSH4 0x6EB1769F PUSH1 0xE1 SHL DUP2 MSTORE PUSH1 0x1 PUSH1 0x1 PUSH1 0xA0 SHL SUB SWAP1 SWAP8 AND PUSH1 0x4 DUP9 ADD MSTORE ADDRESS PUSH1 0x24 DUP9 ADD MSTORE DUP2 SWAP1 DUP8 SWAP1 DUP2 DUP1 PUSH1 0x44 DUP2 ADD JUMPDEST SUB SWAP2 GAS STATICCALL SWAP4 DUP5 ISZERO PUSH2 0x2E6 JUMPI SWAP4 PUSH2 0x2B1 JUMPI JUMPDEST PUSH1 0x80 SWAP6 POP PUSH1 0x40 MLOAD SWAP5 DUP6 MSTORE DUP5 ADD MSTORE PUSH1 0x40 DUP4 ADD MSTORE PUSH1 0x60 DUP3 ADD MSTORE RETURN JUMPDEST DUP1 SWAP4 POP DUP6 DUP2 RETURNDATASIZE DUP4 GT PUSH2 0x2DF JUMPI JUMPDEST PUSH2 0x2C8 DUP2 DUP4 PUSH2 0x13BC JUMP JUMPDEST DUP2 ADD SUB SLT PUSH2 0x2DA JUMPI PUSH1 0x80 SWAP5 MLOAD SWAP3 PUSH2 0x298 JUMP JUMPDEST PUSH1 0x0 DUP1 REVERT JUMPDEST POP RETURNDATASIZE PUSH2 0x2BE JUMP JUMPDEST PUSH1 0x40 MLOAD SWAP1 RETURNDATASIZE SWAP1 DUP3 RETURNDATACOPY RETURNDATASIZE SWAP1 REVERT JUMPDEST SWAP1 SWAP4 POP DUP2 DUP2 DUP2 RETURNDATASIZE DUP4 GT PUSH2 0x31C JUMPI JUMPDEST PUSH2 0x30A DUP2 DUP4 PUSH2 0x13BC JUMP JUMPDEST DUP2 ADD SUB SLT PUSH2 0x2DA JUMPI MLOAD SWAP3 PUSH2 0x287 PUSH2 0x258 JUMP JUMPDEST POP RETURNDATASIZE PUSH2 0x300 JUMP JUMPDEST PUSH1 0x40 MLOAD RETURNDATASIZE DUP8 DUP3 RETURNDATACOPY RETURNDATASIZE SWAP1 REVERT JUMPDEST POP CALLVALUE PUSH2 0x1A4 JUMPI DUP1 PUSH1 0x3 NOT CALLDATASIZE ADD SLT PUSH2 0x1A4 JUMPI PUSH2 0x347 PUSH2 0x1562 JUMP JUMPDEST PUSH1 0x2 SLOAD PUSH1 0xFF DUP2 AND ISZERO PUSH2 0x3A6 JUMPI POP PUSH1 0x2 SLOAD PUSH1 0xFF DUP2 AND ISZERO PUSH2 0x394 JUMPI PUSH1 0xFF NOT AND PUSH1 0x2 SSTORE PUSH32 0x5DB9EE0A495BF2E6FF9C91A7834C1BA4FDD244A5E8AA4E537BD38AEAE4B073AA PUSH1 0x20 PUSH1 0x40 MLOAD CALLER DUP2 MSTORE LOG1 DUP1 RETURN JUMPDEST PUSH1 0x40 MLOAD PUSH4 0x8DFC202B PUSH1 0xE0 SHL DUP2 MSTORE PUSH1 0x4 SWAP1 REVERT JUMPDEST PUSH1 0x1 SWAP1 PUSH2 0x3B1 PUSH2 0x158E JUMP JUMPDEST PUSH1 0xFF NOT AND OR PUSH1 0x2 SSTORE PUSH32 0x62E78CEA01BEE320CD4E420270B5EA74000D11B0C9F74754EBDBFC544B05A258 PUSH1 0x20 PUSH1 0x40 MLOAD CALLER DUP2 MSTORE LOG1 DUP1 RETURN JUMPDEST POP CALLVALUE PUSH2 0x1A4 JUMPI DUP1 PUSH1 0x3 NOT CALLDATASIZE ADD SLT PUSH2 0x1A4 JUMPI PUSH1 0x40 MLOAD PUSH32 0x0 PUSH1 0x1 PUSH1 0x1 PUSH1 0xA0 SHL SUB AND DUP2 MSTORE PUSH1 0x20 SWAP1 RETURN JUMPDEST POP CALLVALUE PUSH2 0x1A4 JUMPI DUP1 PUSH1 0x3 NOT CALLDATASIZE ADD SLT PUSH2 0x1A4 JUMPI PUSH1 0x20 PUSH1 0x9 SLOAD PUSH1 0x40 MLOAD SWAP1 DUP2 MSTORE RETURN JUMPDEST POP CALLVALUE PUSH2 0x1A4 JUMPI PUSH1 0x20 CALLDATASIZE PUSH1 0x3 NOT ADD SLT PUSH2 0x1A4 JUMPI PUSH1 0x4 CALLDATALOAD SWAP1 PUSH1 0xA SLOAD DUP3 LT ISZERO PUSH2 0x1A4 JUMPI PUSH1 0x20 PUSH2 0x474 DUP4 PUSH2 0x1515 JUMP JUMPDEST SWAP1 SLOAD PUSH1 0x40 MLOAD PUSH1 0x3 SWAP3 SWAP1 SWAP3 SHL SHR PUSH1 0x1 PUSH1 0x1 PUSH1 0xA0 SHL SUB AND DUP2 MSTORE RETURN JUMPDEST POP CALLVALUE PUSH2 0x1A4 JUMPI PUSH1 0x20 DUP1 PUSH1 0x3 NOT CALLDATASIZE ADD SLT PUSH2 0x721 JUMPI PUSH8 0xFFFFFFFFFFFFFFFF PUSH1 0x4 CALLDATALOAD DUP2 DUP2 GT PUSH2 0x71D JUMPI PUSH2 0x4C1 SWAP1 CALLDATASIZE SWAP1 PUSH1 0x4 ADD PUSH2 0x13DE JUMP JUMPDEST SWAP1 PUSH1 0x2 PUSH1 0x1 SLOAD EQ PUSH2 0x70B JUMPI PUSH1 0x2 PUSH1 0x1 SSTORE PUSH2 0x4D9 PUSH2 0x158E JUMP JUMPDEST CALLER DUP5 MSTORE PUSH1 0x3 DUP4 MSTORE PUSH1 0xFF PUSH1 0x40 DUP6 KECCAK256 SLOAD AND PUSH2 0x6C8 JUMPI CALLER DUP5 MSTORE PUSH1 0x7 DUP4 MSTORE PUSH1 0xFF PUSH1 0x40 DUP6 KECCAK256 SLOAD AND PUSH2 0x68D JUMPI DUP2 MLOAD ISZERO PUSH2 0x655 JUMPI PUSH1 0xFF PUSH1 0x40 MLOAD DUP5 DUP2 DUP6 MLOAD PUSH2 0x51C DUP2 DUP4 DUP6 DUP11 ADD PUSH2 0x1326 JUMP JUMPDEST DUP2 ADD PUSH1 0x6 DUP2 MSTORE SUB ADD SWAP1 KECCAK256 SLOAD AND PUSH2 0x619 JUMPI CALLER DUP5 MSTORE PUSH1 0x7 DUP4 MSTORE PUSH1 0x40 DUP5 KECCAK256 SWAP2 PUSH1 0xFF NOT SWAP3 PUSH1 0x1 DUP5 DUP3 SLOAD AND OR SWAP1 SSTORE DUP5 ADDRESS EXTCODESIZE ISZERO PUSH2 0x1A4 JUMPI PUSH2 0x579 SWAP2 PUSH1 0x40 MLOAD DUP1 SWAP4 DUP2 SWAP3 PUSH4 0x1A6F990F PUSH1 0xE2 SHL DUP4 MSTORE CALLER PUSH1 0x4 DUP5 ADD MSTORE PUSH1 0x40 PUSH1 0x24 DUP5 ADD MSTORE PUSH1 0x44 DUP4 ADD SWAP1 PUSH2 0x1349 JUMP JUMPDEST SUB DUP2 DUP4 ADDRESS GAS CALL SWAP2 DUP3 PUSH2 0x5F1 JUMPI JUMPDEST POP POP PUSH2 0x5D8 JUMPI POP PUSH1 0x64 SWAP2 CALLER SWAP1 MSTORE PUSH1 0x7 DUP2 MSTORE PUSH1 0x40 MLOAD SWAP1 PUSH3 0x461BCD PUSH1 0xE5 SHL DUP3 MSTORE PUSH1 0x4 DUP3 ADD MSTORE PUSH1 0x1B PUSH1 0x24 DUP3 ADD MSTORE PUSH32 0x46616C6861206E6120657865637563616F20646120717565696D610000000000 PUSH1 0x44 DUP3 ADD MSTORE REVERT JUMPDEST SWAP1 PUSH1 0x7 SWAP1 CALLER DUP5 MSTORE MSTORE PUSH1 0x40 DUP3 KECCAK256 SWAP1 DUP2 SLOAD AND SWAP1 SSTORE PUSH1 0x1 DUP1 SSTORE DUP1 RETURN JUMPDEST DUP2 SWAP6 SWAP3 SWAP6 GT PUSH2 0x605 JUMPI PUSH1 0x40 MSTORE SWAP3 CODESIZE DUP1 PUSH2 0x586 JUMP JUMPDEST PUSH4 0x4E487B71 PUSH1 0xE0 SHL DUP3 MSTORE PUSH1 0x41 PUSH1 0x4 MSTORE PUSH1 0x24 DUP3 REVERT JUMPDEST PUSH1 0x40 MLOAD PUSH3 0x461BCD PUSH1 0xE5 SHL DUP2 MSTORE PUSH1 0x4 DUP2 ADD DUP5 SWAP1 MSTORE PUSH1 0x14 PUSH1 0x24 DUP3 ADD MSTORE PUSH20 0x5175697A204944206A61207574696C697A61646F PUSH1 0x60 SHL PUSH1 0x44 DUP3 ADD MSTORE PUSH1 0x64 SWAP1 REVERT JUMPDEST PUSH1 0x40 MLOAD PUSH3 0x461BCD PUSH1 0xE5 SHL DUP2 MSTORE PUSH1 0x4 DUP2 ADD DUP5 SWAP1 MSTORE PUSH1 0x10 PUSH1 0x24 DUP3 ADD MSTORE PUSH16 0x5175697A20494420696E76616C69646F PUSH1 0x80 SHL PUSH1 0x44 DUP3 ADD MSTORE PUSH1 0x64 SWAP1 REVERT JUMPDEST PUSH1 0x40 MLOAD PUSH3 0x461BCD PUSH1 0xE5 SHL DUP2 MSTORE PUSH1 0x4 DUP2 ADD DUP5 SWAP1 MSTORE PUSH1 0x13 PUSH1 0x24 DUP3 ADD MSTORE PUSH19 0x517565696D6120656D20616E64616D656E746F PUSH1 0x68 SHL PUSH1 0x44 DUP3 ADD MSTORE PUSH1 0x64 SWAP1 REVERT JUMPDEST PUSH1 0x64 DUP4 PUSH1 0x40 MLOAD SWAP1 PUSH3 0x461BCD PUSH1 0xE5 SHL DUP3 MSTORE DUP1 PUSH1 0x4 DUP4 ADD MSTORE PUSH1 0x24 DUP3 ADD MSTORE PUSH32 0x5175697A206A6120636F6D706C657461646F20616E746572696F726D656E7465 PUSH1 0x44 DUP3 ADD MSTORE REVERT JUMPDEST PUSH1 0x40 MLOAD PUSH4 0x3EE5AEB5 PUSH1 0xE0 SHL DUP2 MSTORE PUSH1 0x4 SWAP1 REVERT JUMPDEST DUP4 DUP1 REVERT JUMPDEST POP DUP1 REVERT JUMPDEST POP CALLVALUE PUSH2 0x1A4 JUMPI PUSH1 0x20 CALLDATASIZE PUSH1 0x3 NOT ADD SLT PUSH2 0x1A4 JUMPI PUSH1 0x1 PUSH1 0x1 PUSH1 0xA0 SHL SUB SWAP1 PUSH1 0x40 SWAP1 DUP3 PUSH2 0x74C PUSH2 0x1310 JUMP JUMPDEST AND DUP2 MSTORE PUSH1 0x5 PUSH1 0x20 MSTORE KECCAK256 SWAP1 DUP2 SLOAD AND PUSH1 0x1 DUP3 ADD SLOAD SWAP2 PUSH2 0x7A0 PUSH1 0x2 DUP3 ADD SLOAD SWAP2 PUSH1 0xFF PUSH1 0x4 PUSH2 0x778 PUSH1 0x3 DUP5 ADD PUSH2 0x146F JUMP JUMPDEST SWAP3 ADD SLOAD AND SWAP3 PUSH1 0x40 MLOAD SWAP6 DUP7 SWAP6 DUP7 MSTORE PUSH1 0x20 DUP7 ADD MSTORE PUSH1 0x40 DUP6 ADD MSTORE PUSH1 0xA0 PUSH1 0x60 DUP6 ADD MSTORE PUSH1 0xA0 DUP5 ADD SWAP1 PUSH2 0x1349 JUMP JUMPDEST SWAP1 ISZERO ISZERO PUSH1 0x80 DUP4 ADD MSTORE SUB SWAP1 RETURN JUMPDEST POP CALLVALUE PUSH2 0x1A4 JUMPI PUSH1 0x20 CALLDATASIZE PUSH1 0x3 NOT ADD SLT PUSH2 0x1A4 JUMPI PUSH1 0x4 CALLDATALOAD SWAP1 PUSH8 0xFFFFFFFFFFFFFFFF DUP3 GT PUSH2 0x1A4 JUMPI PUSH1 0x20 PUSH1 0xFF PUSH2 0x7F9 DUP3 PUSH2 0x7E6 CALLDATASIZE PUSH1 0x4 DUP9 ADD PUSH2 0x13DE JUMP JUMPDEST DUP2 PUSH1 0x40 MLOAD SWAP4 DUP3 DUP6 DUP1 SWAP5 MLOAD SWAP4 DUP5 SWAP3 ADD PUSH2 0x1326 JUMP JUMPDEST DUP2 ADD PUSH1 0x6 DUP2 MSTORE SUB ADD SWAP1 KECCAK256 SLOAD AND PUSH1 0x40 MLOAD SWAP1 ISZERO ISZERO DUP2 MSTORE RETURN JUMPDEST POP CALLVALUE PUSH2 0x1A4 JUMPI DUP1 PUSH1 0x3 NOT CALLDATASIZE ADD SLT PUSH2 0x1A4 JUMPI SLOAD PUSH1 0x40 MLOAD PUSH1 0x1 PUSH1 0x1 PUSH1 0xA0 SHL SUB SWAP1 SWAP2 AND DUP2 MSTORE PUSH1 0x20 SWAP1 RETURN JUMPDEST POP CALLVALUE PUSH2 0x1A4 JUMPI PUSH1 0x20 CALLDATASIZE PUSH1 0x3 NOT ADD SLT PUSH2 0x1A4 JUMPI PUSH1 0x20 SWAP1 PUSH1 0xFF SWAP1 PUSH1 0x40 SWAP1 PUSH1 0x1 PUSH1 0x1 PUSH1 0xA0 SHL SUB PUSH2 0x861 PUSH2 0x1310 JUMP JUMPDEST AND DUP2 MSTORE PUSH1 0x3 DUP5 MSTORE KECCAK256 SLOAD AND PUSH1 0x40 MLOAD SWAP1 ISZERO ISZERO DUP2 MSTORE RETURN JUMPDEST POP CALLVALUE PUSH2 0x1A4 JUMPI PUSH1 0x20 CALLDATASIZE PUSH1 0x3 NOT ADD SLT PUSH2 0x1A4 JUMPI PUSH2 0x897 PUSH2 0x892 PUSH2 0x1310 JUMP JUMPDEST PUSH2 0x15E9 JUMP JUMPDEST SWAP1 PUSH2 0x8B6 PUSH1 0x40 MLOAD SWAP3 DUP4 SWAP3 ISZERO ISZERO DUP4 MSTORE PUSH1 0x40 PUSH1 0x20 DUP5 ADD MSTORE PUSH1 0x40 DUP4 ADD SWAP1 PUSH2 0x1349 JUMP JUMPDEST SUB SWAP1 RETURN JUMPDEST POP CALLVALUE PUSH2 0x1A4 JUMPI DUP1 PUSH1 0x3 NOT CALLDATASIZE ADD SLT PUSH2 0x1A4 JUMPI PUSH2 0x8D3 PUSH2 0x1562 JUMP JUMPDEST DUP1 SLOAD PUSH1 0x1 PUSH1 0x1 PUSH1 0xA0 SHL SUB NOT DUP2 AND DUP3 SSTORE DUP2 SWAP1 PUSH1 0x1 PUSH1 0x1 PUSH1 0xA0 SHL SUB AND PUSH32 0x8BE0079C531659141344CD1FD0A4F28419497F9722A3DAAFE3B4186F6B6457E0 DUP3 DUP1 LOG3 DUP1 RETURN JUMPDEST POP CALLVALUE PUSH2 0x1A4 JUMPI PUSH1 0x40 CALLDATASIZE PUSH1 0x3 NOT ADD SLT PUSH2 0x1A4 JUMPI PUSH2 0x92E PUSH2 0x1310 JUMP JUMPDEST PUSH8 0xFFFFFFFFFFFFFFFF PUSH1 0x24 CALLDATALOAD DUP2 DUP2 GT PUSH2 0x71D JUMPI PUSH2 0x94F SWAP1 CALLDATASIZE SWAP1 PUSH1 0x4 ADD PUSH2 0x13DE JUMP JUMPDEST SWAP1 ADDRESS CALLER SUB PUSH2 0xF48 JUMPI PUSH1 0x40 MLOAD PUSH4 0x6EB1769F PUSH1 0xE1 SHL DUP2 MSTORE PUSH32 0x0 PUSH1 0x1 PUSH1 0x1 PUSH1 0xA0 SHL SUB DUP2 DUP2 AND PUSH1 0x4 DUP5 ADD MSTORE ADDRESS PUSH1 0x24 DUP5 ADD MSTORE PUSH32 0x0 AND SWAP2 PUSH1 0x20 DUP2 PUSH1 0x44 DUP2 DUP7 GAS STATICCALL DUP1 ISZERO PUSH2 0xEB2 JUMPI DUP8 SWAP1 PUSH2 0xF0D JUMPI JUMPDEST PUSH9 0x3635C9ADC5DEA00000 SWAP2 POP LT PUSH2 0xEBD JUMPI PUSH1 0x40 MLOAD PUSH4 0x70A08231 PUSH1 0xE0 SHL DUP2 MSTORE PUSH1 0x1 PUSH1 0x1 PUSH1 0xA0 SHL SUB SWAP1 SWAP2 AND PUSH1 0x4 DUP3 ADD DUP2 SWAP1 MSTORE SWAP1 PUSH1 0x20 DUP2 PUSH1 0x24 DUP2 DUP7 GAS STATICCALL DUP1 ISZERO PUSH2 0xEB2 JUMPI DUP8 SWAP1 PUSH2 0xE73 JUMPI JUMPDEST PUSH9 0x3635C9ADC5DEA00000 SWAP2 POP LT PUSH2 0xE2E JUMPI DUP6 SWAP2 PUSH1 0x64 PUSH1 0x20 SWAP3 PUSH1 0x40 MLOAD SWAP5 DUP6 SWAP4 DUP5 SWAP3 PUSH4 0x23B872DD PUSH1 0xE0 SHL DUP5 MSTORE PUSH1 0x4 DUP5 ADD MSTORE DUP2 PUSH1 0x24 DUP5 ADD MSTORE PUSH9 0x3635C9ADC5DEA00000 PUSH1 0x44 DUP5 ADD MSTORE GAS CALL SWAP1 DUP2 ISZERO PUSH2 0x323 JUMPI DUP6 SWAP2 PUSH2 0xDFF JUMPI JUMPDEST POP ISZERO PUSH2 0xDBB JUMPI PUSH1 0x1 DUP1 PUSH1 0xA0 SHL SUB DUP4 AND DUP5 MSTORE PUSH1 0x3 PUSH1 0x20 MSTORE PUSH1 0x40 DUP5 KECCAK256 PUSH1 0x1 PUSH1 0xFF NOT DUP3 SLOAD AND OR SWAP1 SSTORE PUSH1 0x4 PUSH1 0x20 MSTORE TIMESTAMP PUSH1 0x40 DUP6 KECCAK256 SSTORE PUSH1 0x40 MLOAD PUSH1 0x20 DUP2 DUP5 MLOAD PUSH2 0xAB4 DUP2 DUP4 DUP6 DUP10 ADD PUSH2 0x1326 JUMP JUMPDEST DUP2 ADD PUSH1 0x6 DUP2 MSTORE SUB ADD SWAP1 KECCAK256 PUSH1 0x1 PUSH1 0xFF NOT DUP3 SLOAD AND OR SWAP1 SSTORE PUSH1 0x40 MLOAD SWAP1 PUSH2 0xAD6 DUP3 PUSH2 0x136E JUMP JUMPDEST PUSH1 0x1 PUSH1 0x1 PUSH1 0xA0 SHL SUB DUP5 DUP2 AND DUP1 DUP5 MSTORE PUSH9 0x3635C9ADC5DEA00000 PUSH1 0x20 DUP1 DUP7 ADD SWAP2 DUP3 MSTORE TIMESTAMP PUSH1 0x40 DUP1 DUP9 ADD SWAP2 DUP3 MSTORE PUSH1 0x60 DUP9 ADD DUP10 DUP2 MSTORE PUSH1 0x1 PUSH1 0x80 DUP11 ADD DUP2 SWAP1 MSTORE SWAP6 DUP13 MSTORE PUSH1 0x5 SWAP1 SWAP4 MSTORE DUP11 KECCAK256 DUP8 MLOAD DUP2 SLOAD PUSH1 0x1 PUSH1 0x1 PUSH1 0xA0 SHL SUB NOT AND SWAP7 AND SWAP6 SWAP1 SWAP6 OR DUP6 SSTORE SWAP2 MLOAD SWAP3 DUP5 ADD SWAP3 SWAP1 SWAP3 SSTORE MLOAD PUSH1 0x2 DUP4 ADD SSTORE MLOAD DUP1 MLOAD SWAP2 SWAP3 DUP3 GT PUSH2 0xDA7 JUMPI PUSH2 0xB56 PUSH1 0x3 DUP5 ADD SLOAD PUSH2 0x1435 JUMP JUMPDEST PUSH1 0x1F DUP2 GT PUSH2 0xD63 JUMPI JUMPDEST POP PUSH1 0x20 SWAP1 PUSH1 0x1F DUP4 GT PUSH1 0x1 EQ PUSH2 0xCF1 JUMPI SWAP2 DUP1 PUSH1 0x80 SWAP5 SWAP3 PUSH1 0x4 SWAP5 DUP11 SWAP3 PUSH2 0xCE6 JUMPI JUMPDEST POP POP DUP2 PUSH1 0x1 SHL SWAP2 PUSH1 0x0 NOT SWAP1 PUSH1 0x3 SHL SHR NOT AND OR PUSH1 0x3 DUP3 ADD SSTORE JUMPDEST ADD SWAP2 ADD MLOAD ISZERO ISZERO PUSH1 0xFF DUP1 NOT DUP4 SLOAD AND SWAP2 AND OR SWAP1 SSTORE PUSH1 0x8 SLOAD PUSH9 0x3635C9ADC5DEA00000 DUP2 ADD DUP1 SWAP2 GT PUSH2 0xCD2 JUMPI PUSH1 0x8 SSTORE PUSH1 0x1 PUSH1 0x1 PUSH1 0xA0 SHL SUB DUP3 AND DUP4 MSTORE PUSH1 0x5 PUSH1 0x20 MSTORE PUSH1 0x40 DUP4 KECCAK256 PUSH1 0x2 ADD SLOAD TIMESTAMP EQ PUSH2 0xC41 JUMPI JUMPDEST PUSH2 0xC29 PUSH32 0xC9A78544DE36C33D402C60FFD4E61F4FB727C7AD9F598C1F4AC98EEA56048D7A SWAP2 PUSH1 0x40 MLOAD SWAP2 DUP3 SWAP2 PUSH9 0x3635C9ADC5DEA00000 DUP4 MSTORE PUSH1 0x60 PUSH1 0x20 DUP5 ADD MSTORE PUSH1 0x60 DUP4 ADD SWAP1 PUSH2 0x1349 JUMP JUMPDEST TIMESTAMP PUSH1 0x40 DUP4 ADD MSTORE PUSH1 0x1 PUSH1 0x1 PUSH1 0xA0 SHL SUB SWAP1 SWAP5 AND SWAP4 SUB SWAP1 LOG2 DUP1 RETURN JUMPDEST PUSH2 0xC4C PUSH1 0x9 SLOAD PUSH2 0x15C4 JUMP JUMPDEST PUSH1 0x9 SSTORE PUSH1 0xA SLOAD PUSH9 0x10000000000000000 DUP2 LT ISZERO PUSH2 0xCBE JUMPI PUSH32 0xC9A78544DE36C33D402C60FFD4E61F4FB727C7AD9F598C1F4AC98EEA56048D7A SWAP2 PUSH2 0xC98 DUP3 PUSH1 0x1 PUSH2 0xC29 SWAP5 ADD PUSH1 0xA SSTORE PUSH2 0x1515 JUMP JUMPDEST DUP2 SLOAD PUSH1 0x1 PUSH1 0x1 PUSH1 0xA0 SHL SUB DUP8 DUP2 AND PUSH1 0x3 SWAP4 SWAP1 SWAP4 SHL SWAP3 DUP4 SHL SWAP3 SHL NOT AND OR SWAP1 SSTORE SWAP2 POP PUSH2 0xBE1 SWAP1 POP JUMP JUMPDEST PUSH4 0x4E487B71 PUSH1 0xE0 SHL DUP5 MSTORE PUSH1 0x41 PUSH1 0x4 MSTORE PUSH1 0x24 DUP5 REVERT JUMPDEST PUSH4 0x4E487B71 PUSH1 0xE0 SHL DUP5 MSTORE PUSH1 0x11 PUSH1 0x4 MSTORE PUSH1 0x24 DUP5 REVERT JUMPDEST ADD MLOAD SWAP1 POP CODESIZE DUP1 PUSH2 0xB7E JUMP JUMPDEST SWAP1 PUSH1 0x3 DUP5 ADD DUP9 MSTORE PUSH1 0x20 DUP9 KECCAK256 SWAP2 DUP9 JUMPDEST PUSH1 0x1F NOT DUP6 AND DUP2 LT PUSH2 0xD4B JUMPI POP SWAP3 PUSH1 0x80 SWAP5 SWAP3 PUSH1 0x1 SWAP3 PUSH1 0x4 SWAP6 DUP4 PUSH1 0x1F NOT DUP2 AND LT PUSH2 0xD32 JUMPI JUMPDEST POP POP POP DUP2 SHL ADD PUSH1 0x3 DUP3 ADD SSTORE PUSH2 0xB96 JUMP JUMPDEST ADD MLOAD PUSH1 0x0 NOT PUSH1 0xF8 DUP5 PUSH1 0x3 SHL AND SHR NOT AND SWAP1 SSTORE CODESIZE DUP1 DUP1 PUSH2 0xD22 JUMP JUMPDEST SWAP2 SWAP3 PUSH1 0x20 PUSH1 0x1 DUP2 SWAP3 DUP7 DUP6 ADD MLOAD DUP2 SSTORE ADD SWAP5 ADD SWAP3 ADD PUSH2 0xCFF JUMP JUMPDEST PUSH1 0x3 DUP5 ADD DUP9 MSTORE PUSH1 0x20 DUP9 KECCAK256 PUSH1 0x1F DUP5 ADD PUSH1 0x5 SHR DUP2 ADD PUSH1 0x20 DUP6 LT PUSH2 0xDA0 JUMPI JUMPDEST PUSH1 0x1F DUP4 ADD PUSH1 0x5 SHR DUP3 ADD DUP2 LT PUSH2 0xD95 JUMPI POP POP PUSH2 0xB5F JUMP JUMPDEST DUP10 DUP2 SSTORE PUSH1 0x1 ADD PUSH2 0xD7F JUMP JUMPDEST POP DUP1 PUSH2 0xD7F JUMP JUMPDEST PUSH4 0x4E487B71 PUSH1 0xE0 SHL DUP8 MSTORE PUSH1 0x41 PUSH1 0x4 MSTORE PUSH1 0x24 DUP8 REVERT JUMPDEST PUSH1 0x64 PUSH1 0x40 MLOAD PUSH3 0x461BCD PUSH1 0xE5 SHL DUP2 MSTORE PUSH1 0x20 PUSH1 0x4 DUP3 ADD MSTORE PUSH1 0x20 PUSH1 0x24 DUP3 ADD MSTORE PUSH32 0x46616C6861206E61207472616E73666572656E6369612070617261206275726E PUSH1 0x44 DUP3 ADD MSTORE REVERT JUMPDEST PUSH2 0xE21 SWAP2 POP PUSH1 0x20 RETURNDATASIZE PUSH1 0x20 GT PUSH2 0xE27 JUMPI JUMPDEST PUSH2 0xE19 DUP2 DUP4 PUSH2 0x13BC JUMP JUMPDEST DUP2 ADD SWAP1 PUSH2 0x15AC JUMP JUMPDEST CODESIZE PUSH2 0xA6F JUMP JUMPDEST POP RETURNDATASIZE PUSH2 0xE0F JUMP JUMPDEST PUSH1 0x40 MLOAD PUSH3 0x461BCD PUSH1 0xE5 SHL DUP2 MSTORE PUSH1 0x20 PUSH1 0x4 DUP3 ADD MSTORE PUSH1 0x1E PUSH1 0x24 DUP3 ADD MSTORE PUSH32 0x53616C646F20696E737566696369656E7465206E6F2074726561737572790000 PUSH1 0x44 DUP3 ADD MSTORE PUSH1 0x64 SWAP1 REVERT JUMPDEST POP PUSH1 0x20 DUP2 RETURNDATASIZE PUSH1 0x20 GT PUSH2 0xEAA JUMPI JUMPDEST DUP2 PUSH2 0xE8D PUSH1 0x20 SWAP4 DUP4 PUSH2 0x13BC JUMP JUMPDEST DUP2 ADD SUB SLT PUSH2 0xEA6 JUMPI PUSH9 0x3635C9ADC5DEA00000 SWAP1 MLOAD PUSH2 0xA1B JUMP JUMPDEST DUP7 DUP1 REVERT JUMPDEST RETURNDATASIZE SWAP2 POP PUSH2 0xE80 JUMP JUMPDEST PUSH1 0x40 MLOAD RETURNDATASIZE DUP10 DUP3 RETURNDATACOPY RETURNDATASIZE SWAP1 REVERT JUMPDEST PUSH1 0x40 MLOAD PUSH3 0x461BCD PUSH1 0xE5 SHL DUP2 MSTORE PUSH1 0x20 PUSH1 0x4 DUP3 ADD MSTORE PUSH1 0x22 PUSH1 0x24 DUP3 ADD MSTORE PUSH32 0x416C6C6F77616E636520696E737566696369656E746520646F20747265617375 PUSH1 0x44 DUP3 ADD MSTORE PUSH2 0x7279 PUSH1 0xF0 SHL PUSH1 0x64 DUP3 ADD MSTORE PUSH1 0x84 SWAP1 REVERT JUMPDEST POP PUSH1 0x20 DUP2 RETURNDATASIZE PUSH1 0x20 GT PUSH2 0xF40 JUMPI JUMPDEST DUP2 PUSH2 0xF27 PUSH1 0x20 SWAP4 DUP4 PUSH2 0x13BC JUMP JUMPDEST DUP2 ADD SUB SLT PUSH2 0xEA6 JUMPI PUSH9 0x3635C9ADC5DEA00000 SWAP1 MLOAD PUSH2 0x9D4 JUMP JUMPDEST RETURNDATASIZE SWAP2 POP PUSH2 0xF1A JUMP JUMPDEST PUSH1 0x40 MLOAD PUSH3 0x461BCD PUSH1 0xE5 SHL DUP2 MSTORE PUSH1 0x20 PUSH1 0x4 DUP3 ADD MSTORE PUSH1 0xF PUSH1 0x24 DUP3 ADD MSTORE PUSH15 0x41636573736F20726573747269746F PUSH1 0x88 SHL PUSH1 0x44 DUP3 ADD MSTORE PUSH1 0x64 SWAP1 REVERT JUMPDEST POP CALLVALUE PUSH2 0x1A4 JUMPI PUSH1 0x20 CALLDATASIZE PUSH1 0x3 NOT ADD SLT PUSH2 0x1A4 JUMPI PUSH1 0x1 PUSH1 0x1 PUSH1 0xA0 SHL SUB PUSH2 0x8B6 DUP2 PUSH2 0xFA5 PUSH2 0x1310 JUMP JUMPDEST AND SWAP3 DUP4 DUP2 MSTORE PUSH1 0x5 PUSH1 0x20 MSTORE PUSH1 0xFF PUSH1 0x40 DUP1 DUP4 KECCAK256 SWAP3 DUP2 MLOAD SWAP6 PUSH2 0xFC3 DUP8 PUSH2 0x136E JUMP JUMPDEST DUP5 SLOAD AND DUP7 MSTORE PUSH1 0x1 DUP5 ADD SLOAD SWAP7 PUSH1 0x20 DUP8 ADD SWAP8 DUP9 MSTORE PUSH1 0x2 DUP6 ADD SLOAD SWAP7 DUP4 DUP2 ADD SWAP8 DUP9 MSTORE PUSH1 0x80 DUP6 PUSH1 0x4 PUSH2 0xFF2 PUSH1 0x3 DUP11 ADD PUSH2 0x146F JUMP JUMPDEST SWAP9 PUSH1 0x60 DUP6 ADD SWAP10 DUP11 MSTORE ADD SLOAD AND ISZERO ISZERO SWAP2 ADD MSTORE DUP2 MSTORE PUSH1 0x3 PUSH1 0x20 MSTORE KECCAK256 SLOAD AND SWAP3 MLOAD SWAP4 MLOAD SWAP1 MLOAD SWAP1 PUSH1 0x40 MLOAD SWAP5 DUP6 SWAP5 ISZERO ISZERO DUP6 MSTORE PUSH1 0x20 DUP6 ADD MSTORE PUSH1 0x40 DUP5 ADD MSTORE PUSH1 0x80 PUSH1 0x60 DUP5 ADD MSTORE PUSH1 0x80 DUP4 ADD SWAP1 PUSH2 0x1349 JUMP JUMPDEST POP CALLVALUE PUSH2 0x1A4 JUMPI PUSH1 0x40 CALLDATASIZE PUSH1 0x3 NOT ADD SLT PUSH2 0x1A4 JUMPI PUSH2 0x1058 PUSH1 0x24 CALLDATALOAD PUSH1 0x4 CALLDATALOAD PUSH2 0x18BD JUMP JUMPDEST SWAP1 SWAP2 PUSH1 0x40 MLOAD SWAP2 PUSH1 0x40 DUP4 ADD SWAP2 PUSH1 0x40 DUP5 MSTORE DUP5 MLOAD DUP1 SWAP4 MSTORE PUSH1 0x60 DUP5 ADD SWAP3 PUSH1 0x20 DUP1 SWAP7 ADD SWAP2 JUMPDEST DUP2 DUP2 LT PUSH2 0x108B JUMPI POP POP POP DUP3 SWAP4 DUP4 ADD MSTORE SUB SWAP1 RETURN JUMPDEST DUP3 MLOAD PUSH1 0x1 PUSH1 0x1 PUSH1 0xA0 SHL SUB AND DUP6 MSTORE SWAP4 DUP7 ADD SWAP4 SWAP2 DUP7 ADD SWAP2 PUSH1 0x1 ADD PUSH2 0x1078 JUMP JUMPDEST POP CALLVALUE PUSH2 0x1A4 JUMPI DUP1 PUSH1 0x3 NOT CALLDATASIZE ADD SLT PUSH2 0x1A4 JUMPI PUSH1 0x20 PUSH1 0xFF PUSH1 0x2 SLOAD AND PUSH1 0x40 MLOAD SWAP1 ISZERO ISZERO DUP2 MSTORE RETURN JUMPDEST POP CALLVALUE PUSH2 0x1A4 JUMPI PUSH1 0x60 CALLDATASIZE PUSH1 0x3 NOT ADD SLT PUSH2 0x1A4 JUMPI PUSH2 0x10E5 PUSH2 0x1310 JUMP JUMPDEST PUSH1 0x44 CALLDATALOAD PUSH1 0x1 PUSH1 0x1 PUSH1 0xA0 SHL SUB DUP2 DUP2 AND SWAP3 PUSH1 0x24 CALLDATALOAD SWAP3 DUP5 SWAP1 SUB PUSH2 0x126C JUMPI PUSH2 0x1107 PUSH2 0x1562 JUMP JUMPDEST DUP4 ISZERO PUSH2 0x1227 JUMPI AND SWAP1 DUP2 PUSH2 0x11AF JUMPI DUP1 SELFBALANCE LT PUSH2 0x1175 JUMPI DUP4 DUP2 DUP5 DUP3 DUP3 ISZERO PUSH2 0x116C JUMPI JUMPDEST DUP4 SWAP3 DUP4 SWAP3 DUP4 SWAP3 CALL ISZERO PUSH2 0x1161 JUMPI PUSH1 0x20 PUSH32 0xAAEDA929AA102E867049528EC7CD2499E3A2F8846E736AE7935F234DFBF500D9 SWAP2 JUMPDEST PUSH1 0x40 MLOAD SWAP1 DUP2 MSTORE LOG3 DUP1 RETURN JUMPDEST PUSH1 0x40 MLOAD RETURNDATASIZE DUP6 DUP3 RETURNDATACOPY RETURNDATASIZE SWAP1 REVERT JUMPDEST POP PUSH2 0x8FC PUSH2 0x1126 JUMP JUMPDEST PUSH1 0x40 MLOAD PUSH3 0x461BCD PUSH1 0xE5 SHL DUP2 MSTORE PUSH1 0x20 PUSH1 0x4 DUP3 ADD MSTORE PUSH1 0x12 PUSH1 0x24 DUP3 ADD MSTORE PUSH18 0x53616C646F20696E737566696369656E7465 PUSH1 0x70 SHL PUSH1 0x44 DUP3 ADD MSTORE PUSH1 0x64 SWAP1 REVERT JUMPDEST PUSH1 0x40 MLOAD SWAP1 PUSH4 0xA9059CBB PUSH1 0xE0 SHL DUP3 MSTORE DUP4 PUSH1 0x4 DUP4 ADD MSTORE DUP1 PUSH1 0x24 DUP4 ADD MSTORE PUSH1 0x20 DUP3 PUSH1 0x44 DUP2 DUP9 DUP8 GAS CALL SWAP1 DUP2 ISZERO PUSH2 0x323 JUMPI PUSH32 0xAAEDA929AA102E867049528EC7CD2499E3A2F8846E736AE7935F234DFBF500D9 SWAP3 PUSH1 0x20 SWAP3 PUSH2 0x120A JUMPI JUMPDEST POP PUSH2 0x1157 JUMP JUMPDEST PUSH2 0x1220 SWAP1 DUP4 RETURNDATASIZE DUP2 GT PUSH2 0xE27 JUMPI PUSH2 0xE19 DUP2 DUP4 PUSH2 0x13BC JUMP JUMPDEST POP CODESIZE PUSH2 0x1204 JUMP JUMPDEST PUSH1 0x40 MLOAD PUSH3 0x461BCD PUSH1 0xE5 SHL DUP2 MSTORE PUSH1 0x20 PUSH1 0x4 DUP3 ADD MSTORE PUSH1 0x1C PUSH1 0x24 DUP3 ADD MSTORE PUSH32 0x456E64657265636F2064652064657374696E6F20696E76616C69646F00000000 PUSH1 0x44 DUP3 ADD MSTORE PUSH1 0x64 SWAP1 REVERT JUMPDEST DUP5 DUP1 REVERT JUMPDEST POP CALLVALUE PUSH2 0x1A4 JUMPI PUSH1 0x20 CALLDATASIZE PUSH1 0x3 NOT ADD SLT PUSH2 0x1A4 JUMPI PUSH1 0x20 SWAP1 PUSH1 0x40 SWAP1 PUSH1 0x1 PUSH1 0x1 PUSH1 0xA0 SHL SUB PUSH2 0x1298 PUSH2 0x1310 JUMP JUMPDEST AND DUP2 MSTORE PUSH1 0x4 DUP4 MSTORE KECCAK256 SLOAD PUSH1 0x40 MLOAD SWAP1 DUP2 MSTORE RETURN JUMPDEST POP CALLVALUE PUSH2 0x1A4 JUMPI DUP1 PUSH1 0x3 NOT CALLDATASIZE ADD SLT PUSH2 0x1A4 JUMPI PUSH1 0x20 PUSH1 0x40 MLOAD PUSH9 0x3635C9ADC5DEA00000 DUP2 MSTORE RETURN JUMPDEST SWAP1 POP CALLVALUE PUSH2 0x721 JUMPI DUP2 PUSH1 0x3 NOT CALLDATASIZE ADD SLT PUSH2 0x721 JUMPI PUSH32 0x0 PUSH1 0x1 PUSH1 0x1 PUSH1 0xA0 SHL SUB AND DUP2 MSTORE PUSH1 0x20 SWAP1 RETURN JUMPDEST PUSH1 0x4 CALLDATALOAD SWAP1 PUSH1 0x1 PUSH1 0x1 PUSH1 0xA0 SHL SUB DUP3 AND DUP3 SUB PUSH2 0x2DA JUMPI JUMP JUMPDEST PUSH1 0x0 JUMPDEST DUP4 DUP2 LT PUSH2 0x1339 JUMPI POP POP PUSH1 0x0 SWAP2 ADD MSTORE JUMP JUMPDEST DUP2 DUP2 ADD MLOAD DUP4 DUP3 ADD MSTORE PUSH1 0x20 ADD PUSH2 0x1329 JUMP JUMPDEST SWAP1 PUSH1 0x20 SWAP2 PUSH2 0x1362 DUP2 MLOAD DUP1 SWAP3 DUP2 DUP6 MSTORE DUP6 DUP1 DUP7 ADD SWAP2 ADD PUSH2 0x1326 JUMP JUMPDEST PUSH1 0x1F ADD PUSH1 0x1F NOT AND ADD ADD SWAP1 JUMP JUMPDEST PUSH1 0xA0 DUP2 ADD SWAP1 DUP2 LT PUSH8 0xFFFFFFFFFFFFFFFF DUP3 GT OR PUSH2 0x138A JUMPI PUSH1 0x40 MSTORE JUMP JUMPDEST PUSH4 0x4E487B71 PUSH1 0xE0 SHL PUSH1 0x0 MSTORE PUSH1 0x41 PUSH1 0x4 MSTORE PUSH1 0x24 PUSH1 0x0 REVERT JUMPDEST PUSH1 0x40 DUP2 ADD SWAP1 DUP2 LT PUSH8 0xFFFFFFFFFFFFFFFF DUP3 GT OR PUSH2 0x138A JUMPI PUSH1 0x40 MSTORE JUMP JUMPDEST SWAP1 PUSH1 0x1F DUP1 NOT SWAP2 ADD AND DUP2 ADD SWAP1 DUP2 LT PUSH8 0xFFFFFFFFFFFFFFFF DUP3 GT OR PUSH2 0x138A JUMPI PUSH1 0x40 MSTORE JUMP JUMPDEST DUP2 PUSH1 0x1F DUP3 ADD SLT ISZERO PUSH2 0x2DA JUMPI DUP1 CALLDATALOAD SWAP1 PUSH8 0xFFFFFFFFFFFFFFFF DUP3 GT PUSH2 0x138A JUMPI PUSH1 0x40 MLOAD SWAP3 PUSH2 0x1413 PUSH1 0x1F DUP5 ADD PUSH1 0x1F NOT AND PUSH1 0x20 ADD DUP6 PUSH2 0x13BC JUMP JUMPDEST DUP3 DUP5 MSTORE PUSH1 0x20 DUP4 DUP4 ADD ADD GT PUSH2 0x2DA JUMPI DUP2 PUSH1 0x0 SWAP3 PUSH1 0x20 DUP1 SWAP4 ADD DUP4 DUP7 ADD CALLDATACOPY DUP4 ADD ADD MSTORE SWAP1 JUMP JUMPDEST SWAP1 PUSH1 0x1 DUP3 DUP2 SHR SWAP3 AND DUP1 ISZERO PUSH2 0x1465 JUMPI JUMPDEST PUSH1 0x20 DUP4 LT EQ PUSH2 0x144F JUMPI JUMP JUMPDEST PUSH4 0x4E487B71 PUSH1 0xE0 SHL PUSH1 0x0 MSTORE PUSH1 0x22 PUSH1 0x4 MSTORE PUSH1 0x24 PUSH1 0x0 REVERT JUMPDEST SWAP2 PUSH1 0x7F AND SWAP2 PUSH2 0x1444 JUMP JUMPDEST SWAP1 PUSH1 0x40 MLOAD SWAP2 DUP3 PUSH1 0x0 DUP3 SLOAD SWAP3 PUSH2 0x1483 DUP5 PUSH2 0x1435 JUMP JUMPDEST SWAP1 DUP2 DUP5 MSTORE PUSH1 0x1 SWAP5 DUP6 DUP2 AND SWAP1 DUP2 PUSH1 0x0 EQ PUSH2 0x14F2 JUMPI POP PUSH1 0x1 EQ PUSH2 0x14AF JUMPI JUMPDEST POP POP PUSH2 0x14AD SWAP3 POP SUB DUP4 PUSH2 0x13BC JUMP JUMPDEST JUMP JUMPDEST SWAP1 SWAP4 SWAP2 POP PUSH1 0x0 MSTORE PUSH1 0x20 SWAP1 DUP2 PUSH1 0x0 KECCAK256 SWAP4 PUSH1 0x0 SWAP2 JUMPDEST DUP2 DUP4 LT PUSH2 0x14DA JUMPI POP POP PUSH2 0x14AD SWAP4 POP DUP3 ADD ADD CODESIZE DUP1 PUSH2 0x149F JUMP JUMPDEST DUP6 SLOAD DUP9 DUP5 ADD DUP6 ADD MSTORE SWAP5 DUP6 ADD SWAP5 DUP8 SWAP5 POP SWAP2 DUP4 ADD SWAP2 PUSH2 0x14C2 JUMP JUMPDEST SWAP2 POP POP PUSH2 0x14AD SWAP5 POP PUSH1 0x20 SWAP3 POP PUSH1 0xFF NOT AND DUP3 DUP5 ADD MSTORE ISZERO ISZERO PUSH1 0x5 SHL DUP3 ADD ADD CODESIZE DUP1 PUSH2 0x149F JUMP JUMPDEST PUSH1 0xA SLOAD DUP2 LT ISZERO PUSH2 0x154C JUMPI PUSH1 0xA PUSH1 0x0 MSTORE PUSH32 0xC65A7BB8D6351C1CF70C95A316CC6A92839C986682D98BC35F958F4883F9D2A8 ADD SWAP1 PUSH1 0x0 SWAP1 JUMP JUMPDEST PUSH4 0x4E487B71 PUSH1 0xE0 SHL PUSH1 0x0 MSTORE PUSH1 0x32 PUSH1 0x4 MSTORE PUSH1 0x24 PUSH1 0x0 REVERT JUMPDEST PUSH1 0x0 SLOAD PUSH1 0x1 PUSH1 0x1 PUSH1 0xA0 SHL SUB AND CALLER SUB PUSH2 0x1576 JUMPI JUMP JUMPDEST PUSH1 0x40 MLOAD PUSH4 0x118CDAA7 PUSH1 0xE0 SHL DUP2 MSTORE CALLER PUSH1 0x4 DUP3 ADD MSTORE PUSH1 0x24 SWAP1 REVERT JUMPDEST PUSH1 0xFF PUSH1 0x2 SLOAD AND PUSH2 0x159A JUMPI JUMP JUMPDEST PUSH1 0x40 MLOAD PUSH4 0xD93C0665 PUSH1 0xE0 SHL DUP2 MSTORE PUSH1 0x4 SWAP1 REVERT JUMPDEST SWAP1 DUP2 PUSH1 0x20 SWAP2 SUB SLT PUSH2 0x2DA JUMPI MLOAD DUP1 ISZERO ISZERO DUP2 SUB PUSH2 0x2DA JUMPI SWAP1 JUMP JUMPDEST PUSH1 0x0 NOT DUP2 EQ PUSH2 0x15D3 JUMPI PUSH1 0x1 ADD SWAP1 JUMP JUMPDEST PUSH4 0x4E487B71 PUSH1 0xE0 SHL PUSH1 0x0 MSTORE PUSH1 0x11 PUSH1 0x4 MSTORE PUSH1 0x24 PUSH1 0x0 REVERT JUMPDEST SWAP1 PUSH1 0xFF PUSH1 0x2 SLOAD AND PUSH2 0x1868 JUMPI PUSH1 0x1 PUSH1 0x1 PUSH1 0xA0 SHL SUB SWAP2 DUP3 AND PUSH1 0x0 DUP2 DUP2 MSTORE PUSH1 0x3 PUSH1 0x20 SWAP1 DUP2 MSTORE PUSH1 0x40 DUP1 DUP4 KECCAK256 SLOAD SWAP1 SWAP6 SWAP2 SWAP4 SWAP1 PUSH1 0xFF AND PUSH2 0x1839 JUMPI DUP3 MSTORE PUSH1 0x7 DUP4 MSTORE PUSH1 0xFF DUP6 DUP4 KECCAK256 SLOAD AND PUSH2 0x180A JUMPI DUP5 MLOAD PUSH4 0x6EB1769F PUSH1 0xE1 SHL DUP2 MSTORE PUSH32 0x0 PUSH1 0x1 PUSH1 0x1 PUSH1 0xA0 SHL SUB DUP2 AND PUSH1 0x4 DUP4 ADD MSTORE ADDRESS PUSH1 0x24 DUP4 ADD MSTORE SWAP1 SWAP2 PUSH32 0x0 DUP2 AND SWAP2 DUP6 DUP5 PUSH1 0x44 DUP2 DUP7 GAS STATICCALL SWAP4 DUP5 ISZERO PUSH2 0x1800 JUMPI SWAP1 DUP7 SWAP3 SWAP2 DUP7 SWAP6 PUSH2 0x17CD JUMPI JUMPDEST POP PUSH9 0x3635C9ADC5DEA00000 DUP1 SWAP6 LT PUSH2 0x1797 JUMPI DUP9 MLOAD PUSH4 0x70A08231 PUSH1 0xE0 SHL DUP2 MSTORE SWAP2 AND PUSH1 0x4 DUP3 ADD MSTORE SWAP2 DUP3 SWAP1 PUSH1 0x24 SWAP1 DUP3 SWAP1 GAS STATICCALL SWAP1 DUP2 ISZERO PUSH2 0x178D JUMPI DUP4 SWAP2 PUSH2 0x175C JUMPI JUMPDEST POP LT PUSH2 0x1724 JUMPI POP PUSH20 0x456C65676976656C207061726120717565696D61 PUSH1 0x60 SHL PUSH1 0x1 SWAP4 MLOAD SWAP2 PUSH2 0x171A DUP4 PUSH2 0x13A0 JUMP JUMPDEST PUSH1 0x14 DUP4 MSTORE DUP3 ADD MSTORE SWAP1 JUMP JUMPDEST PUSH32 0x53616C646F20696E737566696369656E7465206E6F2074726561737572790000 SWAP1 SWAP4 MLOAD SWAP2 PUSH2 0x1752 DUP4 PUSH2 0x13A0 JUMP JUMPDEST PUSH1 0x1E DUP4 MSTORE DUP3 ADD MSTORE SWAP1 JUMP JUMPDEST SWAP1 POP DUP4 DUP2 DUP2 RETURNDATASIZE DUP4 GT PUSH2 0x1786 JUMPI JUMPDEST PUSH2 0x1773 DUP2 DUP4 PUSH2 0x13BC JUMP JUMPDEST DUP2 ADD SUB SLT PUSH2 0x1782 JUMPI MLOAD CODESIZE PUSH2 0x16ED JUMP JUMPDEST DUP3 DUP1 REVERT JUMPDEST POP RETURNDATASIZE PUSH2 0x1769 JUMP JUMPDEST DUP7 MLOAD RETURNDATASIZE DUP6 DUP3 RETURNDATACOPY RETURNDATASIZE SWAP1 REVERT JUMPDEST POP POP POP POP POP PUSH22 0x416C6C6F77616E636520696E737566696369656E7465 PUSH1 0x50 SHL SWAP1 SWAP4 MLOAD SWAP2 PUSH2 0x17C3 DUP4 PUSH2 0x13A0 JUMP JUMPDEST PUSH1 0x16 DUP4 MSTORE DUP3 ADD MSTORE SWAP1 JUMP JUMPDEST DUP4 DUP2 SWAP4 SWAP5 SWAP3 SWAP7 POP RETURNDATASIZE DUP4 GT PUSH2 0x17F9 JUMPI JUMPDEST PUSH2 0x17E6 DUP2 DUP4 PUSH2 0x13BC JUMP JUMPDEST DUP2 ADD SUB SLT PUSH2 0x126C JUMPI SWAP1 DUP6 SWAP2 MLOAD SWAP4 CODESIZE PUSH2 0x16B0 JUMP JUMPDEST POP RETURNDATASIZE PUSH2 0x17DC JUMP JUMPDEST DUP9 MLOAD RETURNDATASIZE DUP8 DUP3 RETURNDATACOPY RETURNDATASIZE SWAP1 REVERT JUMPDEST POP PUSH19 0x517565696D6120656D20616E64616D656E746F PUSH1 0x68 SHL SWAP1 SWAP4 MLOAD SWAP2 PUSH2 0x182F DUP4 PUSH2 0x13A0 JUMP JUMPDEST PUSH1 0x13 DUP4 MSTORE DUP3 ADD MSTORE SWAP1 JUMP JUMPDEST POP POP PUSH18 0x5175697A206A6120636F6D706C657461646F PUSH1 0x70 SHL SWAP1 SWAP4 MLOAD SWAP2 PUSH2 0x185E DUP4 PUSH2 0x13A0 JUMP JUMPDEST PUSH1 0x12 DUP4 MSTORE DUP3 ADD MSTORE SWAP1 JUMP JUMPDEST PUSH1 0x40 MLOAD PUSH1 0x0 SWAP3 POP PUSH2 0x1878 DUP2 PUSH2 0x13A0 JUMP JUMPDEST PUSH1 0x10 DUP2 MSTORE PUSH16 0x436F6E747261746F207061757361646F PUSH1 0x80 SHL PUSH1 0x20 DUP3 ADD MSTORE SWAP1 JUMP JUMPDEST PUSH8 0xFFFFFFFFFFFFFFFF DUP2 GT PUSH2 0x138A JUMPI PUSH1 0x5 SHL PUSH1 0x20 ADD SWAP1 JUMP JUMPDEST SWAP2 SWAP1 DUP3 SUB SWAP2 DUP3 GT PUSH2 0x15D3 JUMPI JUMP JUMPDEST PUSH1 0xA SLOAD SWAP3 SWAP2 DUP4 DUP3 LT ISZERO PUSH2 0x1989 JUMPI DUP2 ADD SWAP1 DUP2 DUP2 GT PUSH2 0x15D3 JUMPI DUP4 DUP3 GT PUSH2 0x1981 JUMPI JUMPDEST PUSH2 0x18E6 DUP2 DUP4 PUSH2 0x18B0 JUMP JUMPDEST SWAP2 PUSH2 0x18F0 DUP4 PUSH2 0x1898 JUMP JUMPDEST SWAP3 PUSH2 0x18FE PUSH1 0x40 MLOAD SWAP5 DUP6 PUSH2 0x13BC JUMP JUMPDEST DUP1 DUP5 MSTORE PUSH2 0x190D PUSH1 0x1F NOT SWAP2 PUSH2 0x1898 JUMP JUMPDEST ADD PUSH1 0x20 SWAP1 CALLDATASIZE DUP3 DUP7 ADD CALLDATACOPY DUP3 JUMPDEST DUP3 DUP2 LT PUSH2 0x1927 JUMPI POP POP POP POP SWAP2 SWAP1 JUMP JUMPDEST PUSH2 0x1930 DUP2 PUSH2 0x1515 JUMP JUMPDEST SWAP2 SWAP1 SLOAD PUSH2 0x193D DUP7 DUP4 PUSH2 0x18B0 JUMP JUMPDEST SWAP1 DUP8 MLOAD DUP3 LT ISZERO PUSH2 0x196C JUMPI PUSH2 0x1967 SWAP4 DUP6 SWAP2 PUSH1 0x1 DUP1 PUSH1 0xA0 SHL SUB SWAP2 PUSH1 0x3 SHL SHR AND SWAP2 PUSH1 0x5 SHL DUP9 ADD ADD MSTORE PUSH2 0x15C4 JUMP JUMPDEST PUSH2 0x1918 JUMP JUMPDEST PUSH1 0x24 PUSH1 0x0 PUSH4 0x4E487B71 PUSH1 0xE0 SHL DUP2 MSTORE PUSH1 0x32 PUSH1 0x4 MSTORE REVERT JUMPDEST DUP4 SWAP2 POP PUSH2 0x18DC JUMP JUMPDEST POP POP PUSH1 0x40 MLOAD PUSH1 0x20 DUP2 ADD DUP2 DUP2 LT PUSH8 0xFFFFFFFFFFFFFFFF DUP3 GT OR PUSH2 0x138A JUMPI PUSH1 0x40 MSTORE PUSH1 0x0 DUP2 MSTORE PUSH1 0x0 CALLDATASIZE DUP2 CALLDATACOPY SWAP2 SWAP1 JUMP INVALID LOG2 PUSH5 0x6970667358 0x22 SLT KECCAK256 AND 0xCC DUP3 PUSH2 0x6C6 0xE3 0xB3 0xC3 0xB0 0xE3 0x21 SLT SWAP11 GT PUSH28 0xD11FD597B9D35B6D659C1B701765FE764736F6C6343000814003300 "},"methodIdentifiers":{"BURN_AMOUNT()":"20ad6ae3","_executeBurn(address,string)":"69be643c","burnQuizTokens(string)":"ad3a078a","burnRecords(address)":"a80d76b7","burnersList(uint256)":"ba6e0995","canBurnTokens(address)":"8275ebb0","ctdToken()":"0b833b6d","emergencyWithdraw(address,uint256,address)":"551512de","getBurnersList(uint256,uint256)":"62c7f217","getStats()":"c59d4847","getUserInfo(address)":"6386c1c7","hasCompletedQuiz(address)":"84a850b1","lastBurnTimestamp(address)":"2600bf14","owner()":"8da5cb5b","paused()":"5c975abb","projectTreasury()":"c3d0c459","renounceOwnership()":"715018a6","togglePause()":"c4ae3168","totalBurned()":"d89135cd","totalUsers()":"bff1f9e1","transferOwnership(address)":"f2fde38b","usedQuizIds(string)":"a1641b49"}}}}}