{
  "_format": "hh-sol-artifact-1",
  "contractName": "CTDHUB_BINNOAI",
  "sourceName": "contracts/CTDHUB_BINNOAI.sol",
  "abi": [
    {
      "inputs": [
        {
          "internalType": "address",
          "name": "_admin",
          "type": "address"
        },
        {
          "internalType": "address",
          "name": "_initialWriter",
          "type": "address"
        }
      ],
      "stateMutability": "nonpayable",
      "type": "constructor"
    },
    {
      "anonymous": false,
      "inputs": [
        {
          "indexed": true,
          "internalType": "bytes32",
          "name": "id",
          "type": "bytes32"
        },
        {
          "indexed": true,
          "internalType": "address",
          "name": "user",
          "type": "address"
        },
        {
          "indexed": false,
          "internalType": "uint16",
          "name": "criPercent",
          "type": "uint16"
        },
        {
          "indexed": false,
          "internalType": "uint16",
          "name": "questionnaireVersion",
          "type": "uint16"
        },
        {
          "indexed": false,
          "internalType": "uint8",
          "name": "numQuestions",
          "type": "uint8"
        },
        {
          "indexed": false,
          "internalType": "bytes32",
          "name": "contentHash",
          "type": "bytes32"
        },
        {
          "indexed": false,
          "internalType": "string",
          "name": "uri",
          "type": "string"
        }
      ],
      "name": "AssessmentRecorded",
      "type": "event"
    },
    {
      "anonymous": false,
      "inputs": [
        {
          "indexed": true,
          "internalType": "address",
          "name": "who",
          "type": "address"
        },
        {
          "indexed": false,
          "internalType": "bool",
          "name": "enabled",
          "type": "bool"
        }
      ],
      "name": "WriterSet",
      "type": "event"
    },
    {
      "inputs": [],
      "name": "NAME_HASH",
      "outputs": [
        {
          "internalType": "bytes32",
          "name": "",
          "type": "bytes32"
        }
      ],
      "stateMutability": "view",
      "type": "function"
    },
    {
      "inputs": [],
      "name": "admin",
      "outputs": [
        {
          "internalType": "address",
          "name": "",
          "type": "address"
        }
      ],
      "stateMutability": "view",
      "type": "function"
    },
    {
      "inputs": [
        {
          "internalType": "bytes32",
          "name": "id",
          "type": "bytes32"
        }
      ],
      "name": "getAssessment",
      "outputs": [
        {
          "components": [
            {
              "internalType": "address",
              "name": "user",
              "type": "address"
            },
            {
              "internalType": "uint64",
              "name": "assessmentDate",
              "type": "uint64"
            },
            {
              "internalType": "uint32",
              "name": "pillarLevelsPacked",
              "type": "uint32"
            },
            {
              "internalType": "uint16",
              "name": "criPercent",
              "type": "uint16"
            },
            {
              "internalType": "uint16",
              "name": "questionnaireVersion",
              "type": "uint16"
            },
            {
              "internalType": "uint8",
              "name": "numQuestions",
              "type": "uint8"
            },
            {
              "internalType": "bytes32",
              "name": "contentHash",
              "type": "bytes32"
            },
            {
              "internalType": "string",
              "name": "uri",
              "type": "string"
            }
          ],
          "internalType": "struct CTDHUB_BINNOAI.Assessment",
          "name": "",
          "type": "tuple"
        }
      ],
      "stateMutability": "view",
      "type": "function"
    },
    {
      "inputs": [
        {
          "internalType": "bytes32",
          "name": "id",
          "type": "bytes32"
        }
      ],
      "name": "getPillarLevels",
      "outputs": [
        {
          "internalType": "uint8[8]",
          "name": "",
          "type": "uint8[8]"
        }
      ],
      "stateMutability": "view",
      "type": "function"
    },
    {
      "inputs": [
        {
          "internalType": "address",
          "name": "user",
          "type": "address"
        }
      ],
      "name": "getUserAssessments",
      "outputs": [
        {
          "internalType": "bytes32[]",
          "name": "",
          "type": "bytes32[]"
        }
      ],
      "stateMutability": "view",
      "type": "function"
    },
    {
      "inputs": [
        {
          "internalType": "uint8[8]",
          "name": "levels",
          "type": "uint8[8]"
        }
      ],
      "name": "packPillarLevels",
      "outputs": [
        {
          "internalType": "uint32",
          "name": "packed",
          "type": "uint32"
        }
      ],
      "stateMutability": "pure",
      "type": "function"
    },
    {
      "inputs": [
        {
          "components": [
            {
              "internalType": "address",
              "name": "user",
              "type": "address"
            },
            {
              "internalType": "uint64",
              "name": "assessmentDate",
              "type": "uint64"
            },
            {
              "internalType": "uint16",
              "name": "criPercent",
              "type": "uint16"
            },
            {
              "internalType": "uint16",
              "name": "questionnaireVersion",
              "type": "uint16"
            },
            {
              "internalType": "uint8",
              "name": "numQuestions",
              "type": "uint8"
            },
            {
              "internalType": "uint8[8]",
              "name": "pillarLevels",
              "type": "uint8[8]"
            },
            {
              "internalType": "bytes32",
              "name": "contentHash",
              "type": "bytes32"
            },
            {
              "internalType": "string",
              "name": "uri",
              "type": "string"
            }
          ],
          "internalType": "struct CTDHUB_BINNOAI.AssessmentInput",
          "name": "a",
          "type": "tuple"
        }
      ],
      "name": "recordAssessment",
      "outputs": [
        {
          "internalType": "bytes32",
          "name": "id",
          "type": "bytes32"
        }
      ],
      "stateMutability": "nonpayable",
      "type": "function"
    },
    {
      "inputs": [
        {
          "internalType": "bytes32",
          "name": "",
          "type": "bytes32"
        }
      ],
      "name": "seenContentHash",
      "outputs": [
        {
          "internalType": "bool",
          "name": "",
          "type": "bool"
        }
      ],
      "stateMutability": "view",
      "type": "function"
    },
    {
      "inputs": [
        {
          "internalType": "address",
          "name": "who",
          "type": "address"
        },
        {
          "internalType": "bool",
          "name": "enabled",
          "type": "bool"
        }
      ],
      "name": "setWriter",
      "outputs": [],
      "stateMutability": "nonpayable",
      "type": "function"
    },
    {
      "inputs": [
        {
          "internalType": "uint32",
          "name": "packed",
          "type": "uint32"
        }
      ],
      "name": "unpackPillarLevels",
      "outputs": [
        {
          "internalType": "uint8[8]",
          "name": "levels",
          "type": "uint8[8]"
        }
      ],
      "stateMutability": "pure",
      "type": "function"
    },
    {
      "inputs": [
        {
          "internalType": "address",
          "name": "",
          "type": "address"
        }
      ],
      "name": "writer",
      "outputs": [
        {
          "internalType": "bool",
          "name": "",
          "type": "bool"
        }
      ],
      "stateMutability": "view",
      "type": "function"
    }
  ],
  "bytecode": "0x608060405234801561001057600080fd5b5060405161133138038061133183398101604081905261002f916100d0565b600080546001600160a01b0319166001600160a01b03848116919091179091558116156100ad576001600160a01b038116600081815260016020818152604092839020805460ff19168317905591519081527f763ebfe7193aeb87a3385cd59dbefc21c3f875e4c49903a64fa661681b2feea0910160405180910390a25b5050610103565b80516001600160a01b03811681146100cb57600080fd5b919050565b600080604083850312156100e357600080fd5b6100ec836100b4565b91506100fa602084016100b4565b90509250929050565b61121f806101126000396000f3fe608060405234801561001057600080fd5b50600436106100a95760003560e01c80638255343c116100715780638255343c1461016557806395f0649c14610185578063a1e7014414610198578063a981eb4f146101cb578063d4b1af4c146101ee578063f851a4401461020157600080fd5b806304622c2e146100ae5780631f91b39f146100e8578063288a4ca8146100fd5780634fa1eee11461011d57806375233dea14610145575b600080fd5b6100d57f3fa6d1f2349a46d738f814182907acace534466b3029458a2dafd51d686bb5e081565b6040519081526020015b60405180910390f35b6100fb6100f6366004610c7b565b61022c565b005b61011061010b366004610cb7565b6102d6565b6040516100df9190610cd2565b61013061012b366004610d3d565b610342565b60405163ffffffff90911681526020016100df565b610158610153366004610dc3565b6103e3565b6040516100df9190610de9565b610178610173366004610e1e565b610435565b6040516100df9190610e7d565b6100d5610193366004610f17565b6105a4565b6101bb6101a6366004610e1e565b60046020526000908152604090205460ff1681565b60405190151581526020016100df565b6101bb6101d9366004610cb7565b60016020526000908152604090205460ff1681565b6101586101fc366004610e1e565b610bbb565b600054610214906001600160a01b031681565b6040516001600160a01b0390911681526020016100df565b6000546001600160a01b031633146102775760405162461bcd60e51b81526020600482015260096024820152683737ba1030b236b4b760b91b60448201526064015b60405180910390fd5b6001600160a01b038216600081815260016020908152604091829020805460ff191685151590811790915591519182527f763ebfe7193aeb87a3385cd59dbefc21c3f875e4c49903a64fa661681b2feea0910160405180910390a25050565b6001600160a01b03811660009081526003602090815260409182902080548351818402810184019094528084526060939283018282801561033657602002820191906000526020600020905b815481526020019060010190808311610322575b50505050509050919050565b6000805b60088110156103dd57600483826008811061036357610363610f53565b602002015160ff1611156103a35760405162461bcd60e51b81526020600482015260076024820152661b195d995b0f8d60ca1b604482015260640161026e565b6103ae816003610f69565b63ffffffff168382600881106103c6576103c6610f53565b6020020151600716901b9190911790600101610346565b50919050565b6103eb610c40565b60005b60088110156103dd57610402816003610f69565b8363ffffffff16901c60071682826008811061042057610420610f53565b60ff90921660209290920201526001016103ee565b604080516101008101825260008082526020820181905291810182905260608082018390526080820183905260a0820183905260c082019290925260e081019190915260008281526002602081815260409283902083516101008101855281546001600160a01b0381168252600160a01b810467ffffffffffffffff1693820193909352600160e01b90920463ffffffff1693820193909352600183015461ffff8082166060840152620100008204166080830152640100000000900460ff1660a08201529082015460c082015260038201805491929160e08401919061051b90610f94565b80601f016020809104026020016040519081016040528092919081815260200182805461054790610f94565b80156105945780601f1061056957610100808354040283529160200191610594565b820191906000526020600020905b81548152906001019060200180831161057757829003601f168201915b5050505050815250509050919050565b3360009081526001602052604081205460ff166105f05760405162461bcd60e51b815260206004820152600a6024820152693737ba103bb934ba32b960b11b604482015260640161026e565b60006105ff6020840184610cb7565b6001600160a01b03160361063e5760405162461bcd60e51b81526020600482015260066024820152650757365723d360d41b604482015260640161026e565b60646106506060840160408501610fc8565b61ffff16111561068c5760405162461bcd60e51b815260206004820152600760248201526604352493e3130360cc1b604482015260640161026e565b600f61069e60a0840160808501610fec565b60ff1611156106e25760405162461bcd60e51b815260206004820152601060248201526f6d6178203135207175657374696f6e7360801b604482015260640161026e565b6106f26040830160208401611007565b67ffffffffffffffff166000036107345760405162461bcd60e51b81526020600482015260066024820152650646174653d360d41b604482015260640161026e565b6101a082013561076f5760405162461bcd60e51b81526020600482015260066024820152650686173683d360d41b604482015260640161026e565b600061077f6101c0840184611031565b9050116107ba5760405162461bcd60e51b815260206004820152600960248201526875726920656d70747960b81b604482015260640161026e565b6101a082013560009081526004602052604090205460ff16156108125760405162461bcd60e51b815260206004820152601060248201526f191d5c1b1a58d85d19481c995c1bdc9d60821b604482015260640161026e565b60006108498360a0016008806020026040519081016040528092919082600860200280828437600092019190915250610342915050565b90506108586020840184610cb7565b60405160609190911b6bffffffffffffffffffffffff191660208201526101a0840135603482015260540160408051808303601f190181529181528151602092830120600081815260029093529120805491935090600160a01b900467ffffffffffffffff16156108f45760405162461bcd60e51b815260206004820152600660248201526565786973747360d01b604482015260640161026e565b6040805161010081019091528061090e6020870187610cb7565b6001600160a01b0316815260200185602001602081019061092f9190611007565b67ffffffffffffffff1681526020018363ffffffff16815260200185604001602081019061095d9190610fc8565b61ffff1681526020016109766080870160608801610fc8565b61ffff16815260200161098f60a0870160808801610fec565b60ff1681526101a086013560208201526040016109b06101c0870187611031565b8080601f01602080910402602001604051908101604052809392919081815260200183838082843760009201829052509390945250508581526002602081815260409283902085518154928701519487015163ffffffff16600160e01b026001600160e01b0367ffffffffffffffff909616600160a01b026001600160e01b03199094166001600160a01b039092169190911792909217939093161782556060840151600183018054608087015160a088015160ff166401000000000264ff000000001961ffff928316620100000263ffffffff199094169290951691909117919091179290921691909117905560c08401519082015560e08301519091506003820190610abe90826110d0565b506003915060009050610ad46020870187610cb7565b6001600160a01b0316815260208082019290925260409081016000908120805460018181018355918352848320018790556101a0880135825260048452919020805460ff19169091179055610b2b90850185610cb7565b6001600160a01b0316837f147ec676c42cba0c1eeabba1e4fdc53a8c53a9265a135a1e2bf226a1dc1c9c94610b666060880160408901610fc8565b610b766080890160608a01610fc8565b610b8660a08a0160808b01610fec565b6101a08a0135610b9a6101c08c018c611031565b604051610bac96959493929190611190565b60405180910390a35050919050565b610bc3610c40565b600082815260026020526040812080549091600160a01b90910467ffffffffffffffff169003610c215760405162461bcd60e51b81526020600482015260096024820152681b9bdd08199bdd5b9960ba1b604482015260640161026e565b8054610c3990600160e01b900463ffffffff166103e3565b9392505050565b6040518061010001604052806008906020820280368337509192915050565b80356001600160a01b0381168114610c7657600080fd5b919050565b60008060408385031215610c8e57600080fd5b610c9783610c5f565b915060208301358015158114610cac57600080fd5b809150509250929050565b600060208284031215610cc957600080fd5b610c3982610c5f565b6020808252825182820181905260009190848201906040850190845b81811015610d0a57835183529284019291840191600101610cee565b50909695505050505050565b634e487b7160e01b600052604160045260246000fd5b803560ff81168114610c7657600080fd5b6000610100808385031215610d5157600080fd5b83601f840112610d6057600080fd5b60405181810181811067ffffffffffffffff82111715610d8257610d82610d16565b604052908301908085831115610d9757600080fd5b845b83811015610db857610daa81610d2c565b825260209182019101610d99565b509095945050505050565b600060208284031215610dd557600080fd5b813563ffffffff81168114610c3957600080fd5b6101008101818360005b6008811015610e1557815160ff16835260209283019290910190600101610df3565b50505092915050565b600060208284031215610e3057600080fd5b5035919050565b6000815180845260005b81811015610e5d57602081850181015186830182015201610e41565b506000602082860101526020601f19601f83011685010191505092915050565b602080825282516001600160a01b03168282015282015167ffffffffffffffff1660408083019190915282015163ffffffff8116606083015260009050606083015161ffff8116608084015250608083015161ffff811660a08401525060a083015160ff811660c08401525060c083015160e083015260e0830151610100808185015250610f0f610120840182610e37565b949350505050565b600060208284031215610f2957600080fd5b813567ffffffffffffffff811115610f4057600080fd5b82016101e08185031215610c3957600080fd5b634e487b7160e01b600052603260045260246000fd5b8082028115828204841417610f8e57634e487b7160e01b600052601160045260246000fd5b92915050565b600181811c90821680610fa857607f821691505b6020821081036103dd57634e487b7160e01b600052602260045260246000fd5b600060208284031215610fda57600080fd5b813561ffff81168114610c3957600080fd5b600060208284031215610ffe57600080fd5b610c3982610d2c565b60006020828403121561101957600080fd5b813567ffffffffffffffff81168114610c3957600080fd5b6000808335601e1984360301811261104857600080fd5b83018035915067ffffffffffffffff82111561106357600080fd5b60200191503681900382131561107857600080fd5b9250929050565b601f8211156110cb576000816000526020600020601f850160051c810160208610156110a85750805b601f850160051c820191505b818110156110c7578281556001016110b4565b5050505b505050565b815167ffffffffffffffff8111156110ea576110ea610d16565b6110fe816110f88454610f94565b8461107f565b602080601f831160018114611133576000841561111b5750858301515b600019600386901b1c1916600185901b1785556110c7565b600085815260208120601f198616915b8281101561116257888601518255948401946001909101908401611143565b50858210156111805787850151600019600388901b60f8161c191681555b5050505050600190811b01905550565b600061ffff808916835280881660208401525060ff8616604083015284606083015260a060808301528260a0830152828460c0840137600060c0848401015260c0601f19601f850116830101905097965050505050505056fea264697066735822122059396ae64d2f19a43fe9fd90ecc3b21d8b9976b86956d0dc78458128abaf5dec64736f6c63430008180033",
  "linkReferences": {},
  "deployedLinkReferences": {}
}