{
  "_format": "hh-sol-artifact-1",
  "contractName": "CTDQuizBurner",
  "sourceName": "blockchain/contracts/CTDQuizBurner.sol",
  "abi": [
    {
      "inputs": [
        {
          "internalType": "address",
          "name": "_ctdToken",
          "type": "address"
        },
        {
          "internalType": "address",
          "name": "_projectTreasury",
          "type": "address"
        }
      ],
      "stateMutability": "nonpayable",
      "type": "constructor"
    },
    {
      "inputs": [],
      "name": "EnforcedPause",
      "type": "error"
    },
    {
      "inputs": [],
      "name": "ExpectedPause",
      "type": "error"
    },
    {
      "inputs": [
        {
          "internalType": "address",
          "name": "owner",
          "type": "address"
        }
      ],
      "name": "OwnableInvalidOwner",
      "type": "error"
    },
    {
      "inputs": [
        {
          "internalType": "address",
          "name": "account",
          "type": "address"
        }
      ],
      "name": "OwnableUnauthorizedAccount",
      "type": "error"
    },
    {
      "inputs": [],
      "name": "ReentrancyGuardReentrantCall",
      "type": "error"
    },
    {
      "anonymous": false,
      "inputs": [
        {
          "indexed": true,
          "internalType": "address",
          "name": "token",
          "type": "address"
        },
        {
          "indexed": false,
          "internalType": "uint256",
          "name": "amount",
          "type": "uint256"
        },
        {
          "indexed": true,
          "internalType": "address",
          "name": "to",
          "type": "address"
        }
      ],
      "name": "EmergencyWithdraw",
      "type": "event"
    },
    {
      "anonymous": false,
      "inputs": [
        {
          "indexed": true,
          "internalType": "address",
          "name": "previousOwner",
          "type": "address"
        },
        {
          "indexed": true,
          "internalType": "address",
          "name": "newOwner",
          "type": "address"
        }
      ],
      "name": "OwnershipTransferred",
      "type": "event"
    },
    {
      "anonymous": false,
      "inputs": [
        {
          "indexed": false,
          "internalType": "address",
          "name": "account",
          "type": "address"
        }
      ],
      "name": "Paused",
      "type": "event"
    },
    {
      "anonymous": false,
      "inputs": [
        {
          "indexed": true,
          "internalType": "address",
          "name": "user",
          "type": "address"
        },
        {
          "indexed": false,
          "internalType": "uint256",
          "name": "amount",
          "type": "uint256"
        },
        {
          "indexed": false,
          "internalType": "string",
          "name": "quizId",
          "type": "string"
        },
        {
          "indexed": false,
          "internalType": "uint256",
          "name": "timestamp",
          "type": "uint256"
        }
      ],
      "name": "QuizCompleted",
      "type": "event"
    },
    {
      "anonymous": false,
      "inputs": [
        {
          "indexed": false,
          "internalType": "uint256",
          "name": "previousAllowance",
          "type": "uint256"
        },
        {
          "indexed": false,
          "internalType": "uint256",
          "name": "newAllowance",
          "type": "uint256"
        }
      ],
      "name": "TreasuryAllowanceUpdated",
      "type": "event"
    },
    {
      "anonymous": false,
      "inputs": [
        {
          "indexed": false,
          "internalType": "address",
          "name": "account",
          "type": "address"
        }
      ],
      "name": "Unpaused",
      "type": "event"
    },
    {
      "stateMutability": "payable",
      "type": "fallback"
    },
    {
      "inputs": [],
      "name": "BURN_AMOUNT",
      "outputs": [
        {
          "internalType": "uint256",
          "name": "",
          "type": "uint256"
        }
      ],
      "stateMutability": "view",
      "type": "function"
    },
    {
      "inputs": [
        {
          "internalType": "address",
          "name": "user",
          "type": "address"
        },
        {
          "internalType": "string",
          "name": "quizId",
          "type": "string"
        }
      ],
      "name": "_executeBurn",
      "outputs": [],
      "stateMutability": "nonpayable",
      "type": "function"
    },
    {
      "inputs": [
        {
          "internalType": "string",
          "name": "quizId",
          "type": "string"
        }
      ],
      "name": "burnQuizTokens",
      "outputs": [],
      "stateMutability": "nonpayable",
      "type": "function"
    },
    {
      "inputs": [
        {
          "internalType": "address",
          "name": "",
          "type": "address"
        }
      ],
      "name": "burnRecords",
      "outputs": [
        {
          "internalType": "address",
          "name": "user",
          "type": "address"
        },
        {
          "internalType": "uint256",
          "name": "amount",
          "type": "uint256"
        },
        {
          "internalType": "uint256",
          "name": "timestamp",
          "type": "uint256"
        },
        {
          "internalType": "string",
          "name": "quizId",
          "type": "string"
        },
        {
          "internalType": "bool",
          "name": "completed",
          "type": "bool"
        }
      ],
      "stateMutability": "view",
      "type": "function"
    },
    {
      "inputs": [
        {
          "internalType": "uint256",
          "name": "",
          "type": "uint256"
        }
      ],
      "name": "burnersList",
      "outputs": [
        {
          "internalType": "address",
          "name": "",
          "type": "address"
        }
      ],
      "stateMutability": "view",
      "type": "function"
    },
    {
      "inputs": [
        {
          "internalType": "address",
          "name": "user",
          "type": "address"
        }
      ],
      "name": "canBurnTokens",
      "outputs": [
        {
          "internalType": "bool",
          "name": "eligible",
          "type": "bool"
        },
        {
          "internalType": "string",
          "name": "reason",
          "type": "string"
        }
      ],
      "stateMutability": "view",
      "type": "function"
    },
    {
      "inputs": [],
      "name": "ctdToken",
      "outputs": [
        {
          "internalType": "contract IERC20",
          "name": "",
          "type": "address"
        }
      ],
      "stateMutability": "view",
      "type": "function"
    },
    {
      "inputs": [
        {
          "internalType": "address",
          "name": "token",
          "type": "address"
        },
        {
          "internalType": "uint256",
          "name": "amount",
          "type": "uint256"
        },
        {
          "internalType": "address",
          "name": "to",
          "type": "address"
        }
      ],
      "name": "emergencyWithdraw",
      "outputs": [],
      "stateMutability": "nonpayable",
      "type": "function"
    },
    {
      "inputs": [
        {
          "internalType": "uint256",
          "name": "offset",
          "type": "uint256"
        },
        {
          "internalType": "uint256",
          "name": "limit",
          "type": "uint256"
        }
      ],
      "name": "getBurnersList",
      "outputs": [
        {
          "internalType": "address[]",
          "name": "users",
          "type": "address[]"
        },
        {
          "internalType": "uint256",
          "name": "total",
          "type": "uint256"
        }
      ],
      "stateMutability": "view",
      "type": "function"
    },
    {
      "inputs": [],
      "name": "getStats",
      "outputs": [
        {
          "internalType": "uint256",
          "name": "_totalBurned",
          "type": "uint256"
        },
        {
          "internalType": "uint256",
          "name": "_totalUsers",
          "type": "uint256"
        },
        {
          "internalType": "uint256",
          "name": "_treasuryBalance",
          "type": "uint256"
        },
        {
          "internalType": "uint256",
          "name": "_allowance",
          "type": "uint256"
        }
      ],
      "stateMutability": "view",
      "type": "function"
    },
    {
      "inputs": [
        {
          "internalType": "address",
          "name": "user",
          "type": "address"
        }
      ],
      "name": "getUserInfo",
      "outputs": [
        {
          "internalType": "bool",
          "name": "completed",
          "type": "bool"
        },
        {
          "internalType": "uint256",
          "name": "burnTimestamp",
          "type": "uint256"
        },
        {
          "internalType": "uint256",
          "name": "burnAmount",
          "type": "uint256"
        },
        {
          "internalType": "string",
          "name": "quizId",
          "type": "string"
        }
      ],
      "stateMutability": "view",
      "type": "function"
    },
    {
      "inputs": [
        {
          "internalType": "address",
          "name": "",
          "type": "address"
        }
      ],
      "name": "hasCompletedQuiz",
      "outputs": [
        {
          "internalType": "bool",
          "name": "",
          "type": "bool"
        }
      ],
      "stateMutability": "view",
      "type": "function"
    },
    {
      "inputs": [
        {
          "internalType": "address",
          "name": "",
          "type": "address"
        }
      ],
      "name": "lastBurnTimestamp",
      "outputs": [
        {
          "internalType": "uint256",
          "name": "",
          "type": "uint256"
        }
      ],
      "stateMutability": "view",
      "type": "function"
    },
    {
      "inputs": [],
      "name": "owner",
      "outputs": [
        {
          "internalType": "address",
          "name": "",
          "type": "address"
        }
      ],
      "stateMutability": "view",
      "type": "function"
    },
    {
      "inputs": [],
      "name": "paused",
      "outputs": [
        {
          "internalType": "bool",
          "name": "",
          "type": "bool"
        }
      ],
      "stateMutability": "view",
      "type": "function"
    },
    {
      "inputs": [],
      "name": "projectTreasury",
      "outputs": [
        {
          "internalType": "address",
          "name": "",
          "type": "address"
        }
      ],
      "stateMutability": "view",
      "type": "function"
    },
    {
      "inputs": [],
      "name": "renounceOwnership",
      "outputs": [],
      "stateMutability": "nonpayable",
      "type": "function"
    },
    {
      "inputs": [],
      "name": "togglePause",
      "outputs": [],
      "stateMutability": "nonpayable",
      "type": "function"
    },
    {
      "inputs": [],
      "name": "totalBurned",
      "outputs": [
        {
          "internalType": "uint256",
          "name": "",
          "type": "uint256"
        }
      ],
      "stateMutability": "view",
      "type": "function"
    },
    {
      "inputs": [],
      "name": "totalUsers",
      "outputs": [
        {
          "internalType": "uint256",
          "name": "",
          "type": "uint256"
        }
      ],
      "stateMutability": "view",
      "type": "function"
    },
    {
      "inputs": [
        {
          "internalType": "address",
          "name": "newOwner",
          "type": "address"
        }
      ],
      "name": "transferOwnership",
      "outputs": [],
      "stateMutability": "nonpayable",
      "type": "function"
    },
    {
      "inputs": [
        {
          "internalType": "string",
          "name": "",
          "type": "string"
        }
      ],
      "name": "usedQuizIds",
      "outputs": [
        {
          "internalType": "bool",
          "name": "",
          "type": "bool"
        }
      ],
      "stateMutability": "view",
      "type": "function"
    },
    {
      "stateMutability": "payable",
      "type": "receive"
    }
  ],
  "bytecode": "0x60c034620001c05762001bde90601f38839003908101601f19168201906001600160401b03821183831017620001c55780839160409586948552833981010312620001c0576200005d60206200005583620001db565b9201620001db565b903315620001a85760008054336001600160a01b03198216811783558551936001600160a01b039384939192918416907f8be0079c531659141344cd1fd0a4f28419497f9722a3daafe3b4186f6b6457e09080a36001805516918215620001665750821615620001175760805260a052516119ed9081620001f182396080518181816102220152818161099d015281816112e30152611676015260a0518181816101f3015281816103fc01528181610966015261163e0152f35b825162461bcd60e51b815260206004820152602260248201527f54726561737572792061646472657373206e616f20706f646520736572207a65604482015261726f60f01b6064820152608490fd5b62461bcd60e51b815260206004820152601f60248201527f546f6b656e2061646472657373206e616f20706f646520736572207a65726f006044820152606490fd5b8251631e4fbdf760e01b815260006004820152602490fd5b600080fd5b634e487b7160e01b600052604160045260246000fd5b51906001600160a01b0382168203620001c05756fe608080604052600436101561001a575b50361561001857005b005b600090813560e01c9081630b833b6d146112cf5750806320ad6ae3146112ab5780632600bf1414611272578063551512de146110cd5780635c975abb146110aa57806362c7f2171461103a5780636386c1c714610f8157806369be643c14610914578063715018a6146108ba5780638275ebb01461087557806384a850b1146108365780638da5cb5b1461080f578063a1641b49146107ac578063a80d76b714610725578063ad3a078a1461048d578063ba6e099514610449578063bff1f9e11461042b578063c3d0c459146103e6578063c4ae31681461032e578063c59d4847146101c5578063d89135cd146101a75763f2fde38b0361000f57346101a45760203660031901126101a45761012e611312565b610136611564565b6001600160a01b0390811690811561018b57600054826bffffffffffffffffffffffff60a01b821617600055167f8be0079c531659141344cd1fd0a4f28419497f9722a3daafe3b4186f6b6457e0600080a380f35b604051631e4fbdf760e01b815260048101849052602490fd5b80fd5b50346101a457806003193601126101a4576020600854604051908152f35b50346101a457806003193601126101a4576008546009546040516370a0823160e01b81526001600160a01b037f000000000000000000000000000000000000000000000000000000000000000081811660048401529492906020907f0000000000000000000000000000000000000000000000000000000000000000168184602481845afa9384156103235785946102f2575b50604051636eb1769f60e11b81526001600160a01b039097166004880152306024880152819087908180604481015b03915afa9384156102e657936102b1575b6080955060405194855284015260408301526060820152f35b80935085813d83116102df575b6102c881836113be565b810103126102da576080945192610298565b600080fd5b503d6102be565b604051903d90823e3d90fd5b9093508181813d831161031c575b61030a81836113be565b810103126102da575192610287610258565b503d610300565b6040513d87823e3d90fd5b50346101a457806003193601126101a457610347611564565b60025460ff8116156103a6575060025460ff8116156103945760ff19166002557f5db9ee0a495bf2e6ff9c91a7834c1ba4fdd244a5e8aa4e537bd38aeae4b073aa6020604051338152a180f35b604051638dfc202b60e01b8152600490fd5b6001906103b1611590565b60ff1916176002557f62e78cea01bee320cd4e420270b5ea74000d11b0c9f74754ebdbfc544b05a2586020604051338152a180f35b50346101a457806003193601126101a4576040517f00000000000000000000000000000000000000000000000000000000000000006001600160a01b03168152602090f35b50346101a457806003193601126101a4576020600954604051908152f35b50346101a45760203660031901126101a45760043590600a548210156101a457602061047483611517565b905460405160039290921b1c6001600160a01b03168152f35b50346101a4576020806003193601126107215767ffffffffffffffff60043581811161071d576104c19036906004016113e0565b9060026001541461070b5760026001556104d9611590565b3384526003835260ff6040852054166106c8573384526007835260ff60408520541661068d578151156106555760ff6040518481855161051c8183858a01611328565b8101600681520301902054166106195733845260078352604084209160ff199260018482541617905584303b156101a4576105799160405180938192631a6f990f60e21b835233600484015260406024840152604483019061134b565b038183305af191826105f1575b50506105d85750606491339052600781526040519062461bcd60e51b82526004820152601b60248201527f46616c6861206e6120657865637563616f20646120717565696d6100000000006044820152fd5b9060079033845252604082209081541690556001805580f35b819592951161060557604052923880610586565b634e487b7160e01b82526041600452602482fd5b60405162461bcd60e51b81526004810184905260146024820152735175697a204944206a61207574696c697a61646f60601b6044820152606490fd5b60405162461bcd60e51b815260048101849052601060248201526f5175697a20494420696e76616c69646f60801b6044820152606490fd5b60405162461bcd60e51b8152600481018490526013602482015272517565696d6120656d20616e64616d656e746f60681b6044820152606490fd5b6064836040519062461bcd60e51b825280600483015260248201527f5175697a206a6120636f6d706c657461646f20616e746572696f726d656e74656044820152fd5b604051633ee5aeb560e01b8152600490fd5b8380fd5b5080fd5b50346101a45760203660031901126101a4576001600160a01b03906040908261074c611312565b168152600560205220908154166001820154916107a060028201549160ff600461077860038401611471565b920154169260405195869586526020860152604085015260a0606085015260a084019061134b565b90151560808301520390f35b50346101a45760203660031901126101a4576004359067ffffffffffffffff82116101a457602060ff6107f9826107e636600488016113e0565b8160405193828580945193849201611328565b8101600681520301902054166040519015158152f35b50346101a457806003193601126101a457546040516001600160a01b039091168152602090f35b50346101a45760203660031901126101a45760209060ff906040906001600160a01b03610861611312565b168152600384522054166040519015158152f35b50346101a45760203660031901126101a457610897610892611312565b6115eb565b906108b66040519283921515835260406020840152604083019061134b565b0390f35b50346101a457806003193601126101a4576108d3611564565b80546001600160a01b03198116825581906001600160a01b03167f8be0079c531659141344cd1fd0a4f28419497f9722a3daafe3b4186f6b6457e08280a380f35b50346101a45760403660031901126101a45761092e611312565b67ffffffffffffffff60243581811161071d5761094f9036906004016113e0565b90303303610f4a57604051636eb1769f60e11b81527f00000000000000000000000000000000000000000000000000000000000000006001600160a01b0381811660048401523060248401527f00000000000000000000000000000000000000000000000000000000000000001691602081604481865afa8015610eb4578790610f0f575b683635c9adc5dea00000915010610ebf576040516370a0823160e01b81526001600160a01b039091166004820181905290602081602481865afa8015610eb4578790610e75575b683635c9adc5dea00000915010610e30578591606460209260405194859384926323b872dd60e01b8452600484015261dead6024840152683635c9adc5dea0000060448401525af1908115610323578591610e01575b5015610dbd5760018060a01b0383168452600360205260408420600160ff1982541617905560046020524260408520556040516020818451610ab68183858901611328565b81016006815203019020600160ff1982541617905560405190610ad882611370565b6001600160a01b03848116808452683635c9adc5dea00000602080860191825242604080880191825260608801898152600160808a01819052958c5260059093528a20875181546001600160a01b031916961695909517855591519284019290925551600283015551805191928211610da957610b586003840154611437565b601f8111610d65575b50602090601f8311600114610cf3579180608094926004948a92610ce8575b50508160011b916000199060031b1c19161760038201555b01910151151560ff80198354169116179055600854683635c9adc5dea000008101809111610cd4576008556001600160a01b0382168352600560205260408320600201544214610c43575b610c2b7fc9a78544de36c33d402c60ffd4e61f4fb727c7ad9f598c1f4ac98eea56048d7a91604051918291683635c9adc5dea00000835260606020840152606083019061134b565b4260408301526001600160a01b03909416930390a280f35b610c4e6009546115c6565b600955600a5468010000000000000000811015610cc0577fc9a78544de36c33d402c60ffd4e61f4fb727c7ad9f598c1f4ac98eea56048d7a91610c9a826001610c2b9401600a55611517565b81546001600160a01b0387811660039390931b92831b921b19161790559150610be39050565b634e487b7160e01b84526041600452602484fd5b634e487b7160e01b84526011600452602484fd5b015190503880610b80565b906003840188526020882091885b601f1985168110610d4d5750926080949260019260049583601f19811610610d34575b505050811b016003820155610b98565b015160001960f88460031b161c19169055388080610d24565b91926020600181928685015181550194019201610d01565b60038401885260208820601f840160051c810160208510610da2575b601f830160051c82018110610d97575050610b61565b898155600101610d81565b5080610d81565b634e487b7160e01b87526041600452602487fd5b606460405162461bcd60e51b815260206004820152602060248201527f46616c6861206e61207472616e73666572656e6369612070617261206275726e6044820152fd5b610e23915060203d602011610e29575b610e1b81836113be565b8101906115ae565b38610a71565b503d610e11565b60405162461bcd60e51b815260206004820152601e60248201527f53616c646f20696e737566696369656e7465206e6f20747265617375727900006044820152606490fd5b506020813d602011610eac575b81610e8f602093836113be565b81010312610ea857683635c9adc5dea000009051610a1b565b8680fd5b3d9150610e82565b6040513d89823e3d90fd5b60405162461bcd60e51b815260206004820152602260248201527f416c6c6f77616e636520696e737566696369656e746520646f20747265617375604482015261727960f01b6064820152608490fd5b506020813d602011610f42575b81610f29602093836113be565b81010312610ea857683635c9adc5dea0000090516109d4565b3d9150610f1c565b60405162461bcd60e51b815260206004820152600f60248201526e41636573736f20726573747269746f60881b6044820152606490fd5b50346101a45760203660031901126101a4576001600160a01b036108b681610fa7611312565b1692838152600560205260ff604080832092815195610fc587611370565b8454168652600184015496602087019788526002850154968381019788526080856004610ff460038a01611471565b9860608501998a5201541615159101528152600360205220541692519351905190604051948594151585526020850152604084015260806060840152608083019061134b565b50346101a45760403660031901126101a45761105a6024356004356118bf565b909160405191604083019160408452845180935260608401926020809601915b81811061108d5750505082938301520390f35b82516001600160a01b03168552938601939186019160010161107a565b50346101a457806003193601126101a457602060ff600254166040519015158152f35b50346101a45760603660031901126101a4576110e7611312565b6044356001600160a01b03818116926024359284900361126e57611109611564565b8315611229571690816111b1578047106111775783818482821561116e575b839283928392f1156111635760207faaeda929aa102e867049528ec7cd2499e3a2f8846e736ae7935f234dfbf500d9915b604051908152a380f35b6040513d85823e3d90fd5b506108fc611128565b60405162461bcd60e51b815260206004820152601260248201527153616c646f20696e737566696369656e746560701b6044820152606490fd5b6040519063a9059cbb60e01b825283600483015280602483015260208260448188875af1908115610323577faaeda929aa102e867049528ec7cd2499e3a2f8846e736ae7935f234dfbf500d99260209261120c575b50611159565b61122290833d8111610e2957610e1b81836113be565b5038611206565b60405162461bcd60e51b815260206004820152601c60248201527f456e64657265636f2064652064657374696e6f20696e76616c69646f000000006044820152606490fd5b8480fd5b50346101a45760203660031901126101a4576020906040906001600160a01b0361129a611312565b168152600483522054604051908152f35b50346101a457806003193601126101a4576020604051683635c9adc5dea000008152f35b9050346107215781600319360112610721577f00000000000000000000000000000000000000000000000000000000000000006001600160a01b03168152602090f35b600435906001600160a01b03821682036102da57565b60005b83811061133b5750506000910152565b818101518382015260200161132b565b9060209161136481518092818552858086019101611328565b601f01601f1916010190565b60a0810190811067ffffffffffffffff82111761138c57604052565b634e487b7160e01b600052604160045260246000fd5b6040810190811067ffffffffffffffff82111761138c57604052565b90601f8019910116810190811067ffffffffffffffff82111761138c57604052565b81601f820112156102da5780359067ffffffffffffffff821161138c5760405192611415601f8401601f1916602001856113be565b828452602083830101116102da57816000926020809301838601378301015290565b90600182811c92168015611467575b602083101461145157565b634e487b7160e01b600052602260045260246000fd5b91607f1691611446565b906040519182600082549261148584611437565b9081845260019485811690816000146114f457506001146114b1575b50506114af925003836113be565b565b9093915060005260209081600020936000915b8183106114dc5750506114af935082010138806114a1565b855488840185015294850194879450918301916114c4565b9150506114af94506020925060ff191682840152151560051b82010138806114a1565b600a5481101561154e57600a6000527fc65a7bb8d6351c1cf70c95a316cc6a92839c986682d98bc35f958f4883f9d2a80190600090565b634e487b7160e01b600052603260045260246000fd5b6000546001600160a01b0316330361157857565b60405163118cdaa760e01b8152336004820152602490fd5b60ff6002541661159c57565b60405163d93c066560e01b8152600490fd5b908160209103126102da575180151581036102da5790565b60001981146115d55760010190565b634e487b7160e01b600052601160045260246000fd5b9060ff6002541661186a576001600160a01b03918216600081815260036020908152604080832054909591939060ff1661183b5782526007835260ff858320541661180c578451636eb1769f60e11b81527f00000000000000000000000000000000000000000000000000000000000000006001600160a01b038116600483015230602483015290917f00000000000000000000000000000000000000000000000000000000000000008116918584604481865afa938415611802579086929186956117cf575b50683635c9adc5dea000008095106117995788516370a0823160e01b81529116600482015291829060249082905afa90811561178f57839161175e575b5010611726575073456c65676976656c207061726120717565696d6160601b600193519161171c836113a2565b6014835282015290565b7f53616c646f20696e737566696369656e7465206e6f207472656173757279000090935191611754836113a2565b601e835282015290565b90508381813d8311611788575b61177581836113be565b810103126117845751386116ef565b8280fd5b503d61176b565b86513d85823e3d90fd5b505050505075416c6c6f77616e636520696e737566696369656e746560501b909351916117c5836113a2565b6016835282015290565b838193949296503d83116117fb575b6117e881836113be565b8101031261126e579085915193386116b2565b503d6117de565b88513d87823e3d90fd5b5072517565696d6120656d20616e64616d656e746f60681b90935191611831836113a2565b6013835282015290565b5050715175697a206a6120636f6d706c657461646f60701b90935191611860836113a2565b6012835282015290565b6040516000925061187a816113a2565b601081526f436f6e747261746f207061757361646f60801b602082015290565b67ffffffffffffffff811161138c5760051b60200190565b919082039182116115d557565b600a5492918382101561198b578101908181116115d557838211611983575b6118e881836118b2565b916118f28361189a565b9261190060405194856113be565b80845261190f601f199161189a565b016020903682860137825b82811061192957505050509190565b61193281611517565b91905461193f86836118b2565b90875182101561196e5761196993859160018060a01b039160031b1c169160051b880101526115c6565b61191a565b60246000634e487b7160e01b81526032600452fd5b8391506118de565b50506040516020810181811067ffffffffffffffff82111761138c57604052600081526000368137919056fea2646970667358221220f7a53e58ae285602b8cd6f35ed955d20500e092f77f57b0d7fa8d12d3bad26af64736f6c63430008140033",
  "linkReferences": {},
  "deployedLinkReferences": {}
}